{
  "_format": "hh-sol-artifact-1",
  "contractName": "SwagPanda",
  "sourceName": "contracts/SwagPanda.sol",
  "abi": [
    {
      "inputs": [],
      "stateMutability": "nonpayable",
      "type": "constructor"
    },
    {
      "anonymous": false,
      "inputs": [
        {
          "indexed": true,
          "internalType": "address",
          "name": "owner",
          "type": "address"
        },
        {
          "indexed": true,
          "internalType": "address",
          "name": "approved",
          "type": "address"
        },
        {
          "indexed": true,
          "internalType": "uint256",
          "name": "tokenId",
          "type": "uint256"
        }
      ],
      "name": "Approval",
      "type": "event"
    },
    {
      "anonymous": false,
      "inputs": [
        {
          "indexed": true,
          "internalType": "address",
          "name": "owner",
          "type": "address"
        },
        {
          "indexed": true,
          "internalType": "address",
          "name": "operator",
          "type": "address"
        },
        {
          "indexed": false,
          "internalType": "bool",
          "name": "approved",
          "type": "bool"
        }
      ],
      "name": "ApprovalForAll",
      "type": "event"
    },
    {
      "anonymous": false,
      "inputs": [
        {
          "indexed": true,
          "internalType": "address",
          "name": "previousOwner",
          "type": "address"
        },
        {
          "indexed": true,
          "internalType": "address",
          "name": "newOwner",
          "type": "address"
        }
      ],
      "name": "OwnershipTransferred",
      "type": "event"
    },
    {
      "anonymous": false,
      "inputs": [
        {
          "indexed": true,
          "internalType": "address",
          "name": "from",
          "type": "address"
        },
        {
          "indexed": true,
          "internalType": "address",
          "name": "to",
          "type": "address"
        },
        {
          "indexed": true,
          "internalType": "uint256",
          "name": "tokenId",
          "type": "uint256"
        }
      ],
      "name": "Transfer",
      "type": "event"
    },
    {
      "inputs": [],
      "name": "_currentTokenId",
      "outputs": [
        {
          "internalType": "uint256",
          "name": "",
          "type": "uint256"
        }
      ],
      "stateMutability": "view",
      "type": "function"
    },
    {
      "inputs": [
        {
          "internalType": "address",
          "name": "to",
          "type": "address"
        },
        {
          "internalType": "uint256",
          "name": "tokenId",
          "type": "uint256"
        }
      ],
      "name": "approve",
      "outputs": [],
      "stateMutability": "nonpayable",
      "type": "function"
    },
    {
      "inputs": [
        {
          "internalType": "address",
          "name": "owner",
          "type": "address"
        }
      ],
      "name": "balanceOf",
      "outputs": [
        {
          "internalType": "uint256",
          "name": "",
          "type": "uint256"
        }
      ],
      "stateMutability": "view",
      "type": "function"
    },
    {
      "inputs": [
        {
          "internalType": "uint256",
          "name": "_tokenId",
          "type": "uint256"
        }
      ],
      "name": "claim",
      "outputs": [],
      "stateMutability": "payable",
      "type": "function"
    },
    {
      "inputs": [],
      "name": "costToMint",
      "outputs": [
        {
          "internalType": "uint256",
          "name": "",
          "type": "uint256"
        }
      ],
      "stateMutability": "view",
      "type": "function"
    },
    {
      "inputs": [
        {
          "internalType": "uint256",
          "name": "tokenId",
          "type": "uint256"
        }
      ],
      "name": "getApproved",
      "outputs": [
        {
          "internalType": "address",
          "name": "",
          "type": "address"
        }
      ],
      "stateMutability": "view",
      "type": "function"
    },
    {
      "inputs": [
        {
          "internalType": "address",
          "name": "owner",
          "type": "address"
        },
        {
          "internalType": "address",
          "name": "operator",
          "type": "address"
        }
      ],
      "name": "isApprovedForAll",
      "outputs": [
        {
          "internalType": "bool",
          "name": "",
          "type": "bool"
        }
      ],
      "stateMutability": "view",
      "type": "function"
    },
    {
      "inputs": [],
      "name": "name",
      "outputs": [
        {
          "internalType": "string",
          "name": "",
          "type": "string"
        }
      ],
      "stateMutability": "view",
      "type": "function"
    },
    {
      "inputs": [],
      "name": "owner",
      "outputs": [
        {
          "internalType": "address",
          "name": "",
          "type": "address"
        }
      ],
      "stateMutability": "view",
      "type": "function"
    },
    {
      "inputs": [
        {
          "internalType": "address",
          "name": "_address",
          "type": "address"
        }
      ],
      "name": "ownerClaim",
      "outputs": [],
      "stateMutability": "nonpayable",
      "type": "function"
    },
    {
      "inputs": [
        {
          "internalType": "uint256",
          "name": "tokenId",
          "type": "uint256"
        }
      ],
      "name": "ownerOf",
      "outputs": [
        {
          "internalType": "address",
          "name": "",
          "type": "address"
        }
      ],
      "stateMutability": "view",
      "type": "function"
    },
    {
      "inputs": [],
      "name": "renounceOwnership",
      "outputs": [],
      "stateMutability": "nonpayable",
      "type": "function"
    },
    {
      "inputs": [
        {
          "internalType": "address",
          "name": "from",
          "type": "address"
        },
        {
          "internalType": "address",
          "name": "to",
          "type": "address"
        },
        {
          "internalType": "uint256",
          "name": "tokenId",
          "type": "uint256"
        }
      ],
      "name": "safeTransferFrom",
      "outputs": [],
      "stateMutability": "nonpayable",
      "type": "function"
    },
    {
      "inputs": [
        {
          "internalType": "address",
          "name": "from",
          "type": "address"
        },
        {
          "internalType": "address",
          "name": "to",
          "type": "address"
        },
        {
          "internalType": "uint256",
          "name": "tokenId",
          "type": "uint256"
        },
        {
          "internalType": "bytes",
          "name": "_data",
          "type": "bytes"
        }
      ],
      "name": "safeTransferFrom",
      "outputs": [],
      "stateMutability": "nonpayable",
      "type": "function"
    },
    {
      "inputs": [
        {
          "internalType": "address",
          "name": "operator",
          "type": "address"
        },
        {
          "internalType": "bool",
          "name": "approved",
          "type": "bool"
        }
      ],
      "name": "setApprovalForAll",
      "outputs": [],
      "stateMutability": "nonpayable",
      "type": "function"
    },
    {
      "inputs": [
        {
          "internalType": "uint256",
          "name": "_costToMint",
          "type": "uint256"
        }
      ],
      "name": "setCostToMint",
      "outputs": [],
      "stateMutability": "nonpayable",
      "type": "function"
    },
    {
      "inputs": [
        {
          "internalType": "uint256",
          "name": "_supply",
          "type": "uint256"
        }
      ],
      "name": "setSupply",
      "outputs": [],
      "stateMutability": "nonpayable",
      "type": "function"
    },
    {
      "inputs": [],
      "name": "supply",
      "outputs": [
        {
          "internalType": "uint256",
          "name": "",
          "type": "uint256"
        }
      ],
      "stateMutability": "view",
      "type": "function"
    },
    {
      "inputs": [
        {
          "internalType": "bytes4",
          "name": "interfaceId",
          "type": "bytes4"
        }
      ],
      "name": "supportsInterface",
      "outputs": [
        {
          "internalType": "bool",
          "name": "",
          "type": "bool"
        }
      ],
      "stateMutability": "view",
      "type": "function"
    },
    {
      "inputs": [],
      "name": "symbol",
      "outputs": [
        {
          "internalType": "string",
          "name": "",
          "type": "string"
        }
      ],
      "stateMutability": "view",
      "type": "function"
    },
    {
      "inputs": [
        {
          "internalType": "uint256",
          "name": "index",
          "type": "uint256"
        }
      ],
      "name": "tokenByIndex",
      "outputs": [
        {
          "internalType": "uint256",
          "name": "",
          "type": "uint256"
        }
      ],
      "stateMutability": "view",
      "type": "function"
    },
    {
      "inputs": [
        {
          "internalType": "address",
          "name": "owner",
          "type": "address"
        },
        {
          "internalType": "uint256",
          "name": "index",
          "type": "uint256"
        }
      ],
      "name": "tokenOfOwnerByIndex",
      "outputs": [
        {
          "internalType": "uint256",
          "name": "",
          "type": "uint256"
        }
      ],
      "stateMutability": "view",
      "type": "function"
    },
    {
      "inputs": [
        {
          "internalType": "uint256",
          "name": "tokenId",
          "type": "uint256"
        }
      ],
      "name": "tokenURI",
      "outputs": [
        {
          "internalType": "string",
          "name": "",
          "type": "string"
        }
      ],
      "stateMutability": "pure",
      "type": "function"
    },
    {
      "inputs": [],
      "name": "totalSupply",
      "outputs": [
        {
          "internalType": "uint256",
          "name": "",
          "type": "uint256"
        }
      ],
      "stateMutability": "view",
      "type": "function"
    },
    {
      "inputs": [
        {
          "internalType": "address",
          "name": "from",
          "type": "address"
        },
        {
          "internalType": "address",
          "name": "to",
          "type": "address"
        },
        {
          "internalType": "uint256",
          "name": "tokenId",
          "type": "uint256"
        }
      ],
      "name": "transferFrom",
      "outputs": [],
      "stateMutability": "nonpayable",
      "type": "function"
    },
    {
      "inputs": [
        {
          "internalType": "address",
          "name": "newOwner",
          "type": "address"
        }
      ],
      "name": "transferOwnership",
      "outputs": [],
      "stateMutability": "nonpayable",
      "type": "function"
    },
    {
      "inputs": [],
      "name": "withdraw",
      "outputs": [],
      "stateMutability": "nonpayable",
      "type": "function"
    }
  ],
  "bytecode": "0x60806040526001600c55662386f26fc10000600d556103e8600e553480156200002757600080fd5b506040518060400160405280600a81526020017f537761672050616e6461000000000000000000000000000000000000000000008152506040518060400160405280600981526020017f5377616750616e646100000000000000000000000000000000000000000000008152508160009080519060200190620000ac929190620001c4565b508060019080519060200190620000c5929190620001c4565b5050506001600a81905550620000f0620000e4620000f660201b60201c565b620000fe60201b60201c565b620002d9565b600033905090565b6000600b60009054906101000a900473ffffffffffffffffffffffffffffffffffffffff16905081600b60006101000a81548173ffffffffffffffffffffffffffffffffffffffff021916908373ffffffffffffffffffffffffffffffffffffffff1602179055508173ffffffffffffffffffffffffffffffffffffffff168173ffffffffffffffffffffffffffffffffffffffff167f8be0079c531659141344cd1fd0a4f28419497f9722a3daafe3b4186f6b6457e060405160405180910390a35050565b828054620001d29062000274565b90600052602060002090601f016020900481019282620001f6576000855562000242565b82601f106200021157805160ff191683800117855562000242565b8280016001018555821562000242579182015b828111156200024157825182559160200191906001019062000224565b5b50905062000251919062000255565b5090565b5b808211156200027057600081600090555060010162000256565b5090565b600060028204905060018216806200028d57607f821691505b60208210811415620002a457620002a3620002aa565b5b50919050565b7f4e487b7100000000000000000000000000000000000000000000000000000000600052602260045260246000fd5b613ae280620002e96000396000f3fe60806040526004361061019c5760003560e01c80634f6ccce7116100ec578063a22cb4651161008a578063c963483c11610064578063c963483c146105b5578063e985e9c5146105e0578063ecbeefec1461061d578063f2fde38b146106485761019c565b8063a22cb46514610526578063b88d4fde1461054f578063c87b56dd146105785761019c565b806370a08231116100c657806370a082311461047c578063715018a6146104b95780638da5cb5b146104d057806395d89b41146104fb5761019c565b80634f6ccce7146103d95780636000fbcc146104165780636352211e1461043f5761019c565b806323b872dd11610159578063379607f511610133578063379607f5146103545780633b4c4b25146103705780633ccfd60b1461039957806342842e0e146103b05761019c565b806323b872dd146102c55780632f745c59146102ee57806336d044331461032b5761019c565b806301ffc9a7146101a1578063047fc9aa146101de57806306fdde0314610209578063081812fc14610234578063095ea7b31461027157806318160ddd1461029a575b600080fd5b3480156101ad57600080fd5b506101c860048036038101906101c391906128dd565b610671565b6040516101d59190612de1565b60405180910390f35b3480156101ea57600080fd5b506101f36106eb565b60405161020091906130be565b60405180910390f35b34801561021557600080fd5b5061021e6106f1565b60405161022b9190612dfc565b60405180910390f35b34801561024057600080fd5b5061025b6004803603810190610256919061292f565b610783565b6040516102689190612d7a565b60405180910390f35b34801561027d57600080fd5b50610298600480360381019061029391906128a1565b610808565b005b3480156102a657600080fd5b506102af610920565b6040516102bc91906130be565b60405180910390f35b3480156102d157600080fd5b506102ec60048036038101906102e7919061279b565b61092d565b005b3480156102fa57600080fd5b50610315600480360381019061031091906128a1565b61098d565b60405161032291906130be565b60405180910390f35b34801561033757600080fd5b50610352600480360381019061034d9190612736565b610a32565b005b61036e6004803603810190610369919061292f565b610b61565b005b34801561037c57600080fd5b506103976004803603810190610392919061292f565b610c5e565b005b3480156103a557600080fd5b506103ae610ce4565b005b3480156103bc57600080fd5b506103d760048036038101906103d2919061279b565b610db0565b005b3480156103e557600080fd5b5061040060048036038101906103fb919061292f565b610dd0565b60405161040d91906130be565b60405180910390f35b34801561042257600080fd5b5061043d6004803603810190610438919061292f565b610e67565b005b34801561044b57600080fd5b506104666004803603810190610461919061292f565b610eed565b6040516104739190612d7a565b60405180910390f35b34801561048857600080fd5b506104a3600480360381019061049e9190612736565b610f9f565b6040516104b091906130be565b60405180910390f35b3480156104c557600080fd5b506104ce611057565b005b3480156104dc57600080fd5b506104e56110df565b6040516104f29190612d7a565b60405180910390f35b34801561050757600080fd5b50610510611109565b60405161051d9190612dfc565b60405180910390f35b34801561053257600080fd5b5061054d60048036038101906105489190612865565b61119b565b005b34801561055b57600080fd5b50610576600480360381019061057191906127ea565b61131c565b005b34801561058457600080fd5b5061059f600480360381019061059a919061292f565b61137e565b6040516105ac9190612dfc565b60405180910390f35b3480156105c157600080fd5b506105ca6113af565b6040516105d791906130be565b60405180910390f35b3480156105ec57600080fd5b506106076004803603810190610602919061275f565b6113b5565b6040516106149190612de1565b60405180910390f35b34801561062957600080fd5b50610632611449565b60405161063f91906130be565b60405180910390f35b34801561065457600080fd5b5061066f600480360381019061066a9190612736565b61144f565b005b60007f780e9d63000000000000000000000000000000000000000000000000000000007bffffffffffffffffffffffffffffffffffffffffffffffffffffffff1916827bffffffffffffffffffffffffffffffffffffffffffffffffffffffff191614806106e457506106e382611547565b5b9050919050565b600e5481565b606060008054610700906132e3565b80601f016020809104026020016040519081016040528092919081815260200182805461072c906132e3565b80156107795780601f1061074e57610100808354040283529160200191610779565b820191906000526020600020905b81548152906001019060200180831161075c57829003601f168201915b5050505050905090565b600061078e82611629565b6107cd576040517f08c379a00000000000000000000000000000000000000000000000000000000081526004016107c490612f9e565b60405180910390fd5b6004600083815260200190815260200160002060009054906101000a900473ffffffffffffffffffffffffffffffffffffffff169050919050565b600061081382610eed565b90508073ffffffffffffffffffffffffffffffffffffffff168373ffffffffffffffffffffffffffffffffffffffff161415610884576040517f08c379a000000000000000000000000000000000000000000000000000000000815260040161087b90612ffe565b60405180910390fd5b8073ffffffffffffffffffffffffffffffffffffffff166108a3611695565b73ffffffffffffffffffffffffffffffffffffffff1614806108d257506108d1816108cc611695565b6113b5565b5b610911576040517f08c379a000000000000000000000000000000000000000000000000000000000815260040161090890612efe565b60405180910390fd5b61091b838361169d565b505050565b6000600880549050905090565b61093e610938611695565b82611756565b61097d576040517f08c379a00000000000000000000000000000000000000000000000000000000081526004016109749061301e565b60405180910390fd5b610988838383611834565b505050565b600061099883610f9f565b82106109d9576040517f08c379a00000000000000000000000000000000000000000000000000000000081526004016109d090612e1e565b60405180910390fd5b600660008473ffffffffffffffffffffffffffffffffffffffff1673ffffffffffffffffffffffffffffffffffffffff168152602001908152602001600020600083815260200190815260200160002054905092915050565b6002600a541415610a78576040517f08c379a0000000000000000000000000000000000000000000000000000000008152600401610a6f9061307e565b60405180910390fd5b6002600a81905550610a88611695565b73ffffffffffffffffffffffffffffffffffffffff16610aa66110df565b73ffffffffffffffffffffffffffffffffffffffff1614610afc576040517f08c379a0000000000000000000000000000000000000000000000000000000008152600401610af390612fbe565b60405180910390fd5b600e54600c5410610b42576040517f08c379a0000000000000000000000000000000000000000000000000000000008152600401610b399061309e565b60405180910390fd5b610b4e81600c54611a90565b610b56611aae565b6001600a8190555050565b6002600a541415610ba7576040517f08c379a0000000000000000000000000000000000000000000000000000000008152600401610b9e9061307e565b60405180910390fd5b6002600a81905550600e548110610bf3576040517f08c379a0000000000000000000000000000000000000000000000000000000008152600401610bea90612f5e565b60405180910390fd5b600d54341015610c38576040517f08c379a0000000000000000000000000000000000000000000000000000000008152600401610c2f9061305e565b60405180910390fd5b610c4b610c43611695565b600c54611a90565b610c53611aae565b6001600a8190555050565b610c66611695565b73ffffffffffffffffffffffffffffffffffffffff16610c846110df565b73ffffffffffffffffffffffffffffffffffffffff1614610cda576040517f08c379a0000000000000000000000000000000000000000000000000000000008152600401610cd190612fbe565b60405180910390fd5b80600e8190555050565b610cec611695565b73ffffffffffffffffffffffffffffffffffffffff16610d0a6110df565b73ffffffffffffffffffffffffffffffffffffffff1614610d60576040517f08c379a0000000000000000000000000000000000000000000000000000000008152600401610d5790612fbe565b60405180910390fd5b610d686110df565b73ffffffffffffffffffffffffffffffffffffffff166108fc479081150290604051600060405180830381858888f19350505050158015610dad573d6000803e3d6000fd5b50565b610dcb8383836040518060200160405280600081525061131c565b505050565b6000610dda610920565b8210610e1b576040517f08c379a0000000000000000000000000000000000000000000000000000000008152600401610e129061303e565b60405180910390fd5b60088281548110610e55577f4e487b7100000000000000000000000000000000000000000000000000000000600052603260045260246000fd5b90600052602060002001549050919050565b610e6f611695565b73ffffffffffffffffffffffffffffffffffffffff16610e8d6110df565b73ffffffffffffffffffffffffffffffffffffffff1614610ee3576040517f08c379a0000000000000000000000000000000000000000000000000000000008152600401610eda90612fbe565b60405180910390fd5b80600d8190555050565b6000806002600084815260200190815260200160002060009054906101000a900473ffffffffffffffffffffffffffffffffffffffff169050600073ffffffffffffffffffffffffffffffffffffffff168173ffffffffffffffffffffffffffffffffffffffff161415610f96576040517f08c379a0000000000000000000000000000000000000000000000000000000008152600401610f8d90612f3e565b60405180910390fd5b80915050919050565b60008073ffffffffffffffffffffffffffffffffffffffff168273ffffffffffffffffffffffffffffffffffffffff161415611010576040517f08c379a000000000000000000000000000000000000000000000000000000000815260040161100790612f1e565b60405180910390fd5b600360008373ffffffffffffffffffffffffffffffffffffffff1673ffffffffffffffffffffffffffffffffffffffff168152602001908152602001600020549050919050565b61105f611695565b73ffffffffffffffffffffffffffffffffffffffff1661107d6110df565b73ffffffffffffffffffffffffffffffffffffffff16146110d3576040517f08c379a00000000000000000000000000000000000000000000000000000000081526004016110ca90612fbe565b60405180910390fd5b6110dd6000611ac8565b565b6000600b60009054906101000a900473ffffffffffffffffffffffffffffffffffffffff16905090565b606060018054611118906132e3565b80601f0160208091040260200160405190810160405280929190818152602001828054611144906132e3565b80156111915780601f1061116657610100808354040283529160200191611191565b820191906000526020600020905b81548152906001019060200180831161117457829003601f168201915b5050505050905090565b6111a3611695565b73ffffffffffffffffffffffffffffffffffffffff168273ffffffffffffffffffffffffffffffffffffffff161415611211576040517f08c379a000000000000000000000000000000000000000000000000000000000815260040161120890612ebe565b60405180910390fd5b806005600061121e611695565b73ffffffffffffffffffffffffffffffffffffffff1673ffffffffffffffffffffffffffffffffffffffff16815260200190815260200160002060008473ffffffffffffffffffffffffffffffffffffffff1673ffffffffffffffffffffffffffffffffffffffff16815260200190815260200160002060006101000a81548160ff0219169083151502179055508173ffffffffffffffffffffffffffffffffffffffff166112cb611695565b73ffffffffffffffffffffffffffffffffffffffff167f17307eab39ab6107e8899845ad3d59bd9653f200f220920489ca2b5937696c31836040516113109190612de1565b60405180910390a35050565b61132d611327611695565b83611756565b61136c576040517f08c379a00000000000000000000000000000000000000000000000000000000081526004016113639061301e565b60405180910390fd5b61137884848484611b8e565b50505050565b606061138982611bea565b6040516020016113999190612d4d565b6040516020818303038152906040529050919050565b600c5481565b6000600560008473ffffffffffffffffffffffffffffffffffffffff1673ffffffffffffffffffffffffffffffffffffffff16815260200190815260200160002060008373ffffffffffffffffffffffffffffffffffffffff1673ffffffffffffffffffffffffffffffffffffffff16815260200190815260200160002060009054906101000a900460ff16905092915050565b600d5481565b611457611695565b73ffffffffffffffffffffffffffffffffffffffff166114756110df565b73ffffffffffffffffffffffffffffffffffffffff16146114cb576040517f08c379a00000000000000000000000000000000000000000000000000000000081526004016114c290612fbe565b60405180910390fd5b600073ffffffffffffffffffffffffffffffffffffffff168173ffffffffffffffffffffffffffffffffffffffff16141561153b576040517f08c379a000000000000000000000000000000000000000000000000000000000815260040161153290612e5e565b60405180910390fd5b61154481611ac8565b50565b60007f80ac58cd000000000000000000000000000000000000000000000000000000007bffffffffffffffffffffffffffffffffffffffffffffffffffffffff1916827bffffffffffffffffffffffffffffffffffffffffffffffffffffffff1916148061161257507f5b5e139f000000000000000000000000000000000000000000000000000000007bffffffffffffffffffffffffffffffffffffffffffffffffffffffff1916827bffffffffffffffffffffffffffffffffffffffffffffffffffffffff1916145b80611622575061162182611d97565b5b9050919050565b60008073ffffffffffffffffffffffffffffffffffffffff166002600084815260200190815260200160002060009054906101000a900473ffffffffffffffffffffffffffffffffffffffff1673ffffffffffffffffffffffffffffffffffffffff1614159050919050565b600033905090565b816004600083815260200190815260200160002060006101000a81548173ffffffffffffffffffffffffffffffffffffffff021916908373ffffffffffffffffffffffffffffffffffffffff160217905550808273ffffffffffffffffffffffffffffffffffffffff1661171083610eed565b73ffffffffffffffffffffffffffffffffffffffff167f8c5be1e5ebec7d5bd14f71427d1e84f3dd0314c0f7b2291e5b200ac8c7c3b92560405160405180910390a45050565b600061176182611629565b6117a0576040517f08c379a000000000000000000000000000000000000000000000000000000000815260040161179790612ede565b60405180910390fd5b60006117ab83610eed565b90508073ffffffffffffffffffffffffffffffffffffffff168473ffffffffffffffffffffffffffffffffffffffff16148061181a57508373ffffffffffffffffffffffffffffffffffffffff1661180284610783565b73ffffffffffffffffffffffffffffffffffffffff16145b8061182b575061182a81856113b5565b5b91505092915050565b8273ffffffffffffffffffffffffffffffffffffffff1661185482610eed565b73ffffffffffffffffffffffffffffffffffffffff16146118aa576040517f08c379a00000000000000000000000000000000000000000000000000000000081526004016118a190612fde565b60405180910390fd5b600073ffffffffffffffffffffffffffffffffffffffff168273ffffffffffffffffffffffffffffffffffffffff16141561191a576040517f08c379a000000000000000000000000000000000000000000000000000000000815260040161191190612e9e565b60405180910390fd5b611925838383611e01565b61193060008261169d565b6001600360008573ffffffffffffffffffffffffffffffffffffffff1673ffffffffffffffffffffffffffffffffffffffff168152602001908152602001600020600082825461198091906131f9565b925050819055506001600360008473ffffffffffffffffffffffffffffffffffffffff1673ffffffffffffffffffffffffffffffffffffffff16815260200190815260200160002060008282546119d79190613172565b92505081905550816002600083815260200190815260200160002060006101000a81548173ffffffffffffffffffffffffffffffffffffffff021916908373ffffffffffffffffffffffffffffffffffffffff160217905550808273ffffffffffffffffffffffffffffffffffffffff168473ffffffffffffffffffffffffffffffffffffffff167fddf252ad1be2c89b69c2b068fc378daa952ba7f163c4a11628f55a4df523b3ef60405160405180910390a4505050565b611aaa828260405180602001604052806000815250611f15565b5050565b600c6000815480929190611ac190613346565b9190505550565b6000600b60009054906101000a900473ffffffffffffffffffffffffffffffffffffffff16905081600b60006101000a81548173ffffffffffffffffffffffffffffffffffffffff021916908373ffffffffffffffffffffffffffffffffffffffff1602179055508173ffffffffffffffffffffffffffffffffffffffff168173ffffffffffffffffffffffffffffffffffffffff167f8be0079c531659141344cd1fd0a4f28419497f9722a3daafe3b4186f6b6457e060405160405180910390a35050565b611b99848484611834565b611ba584848484611f70565b611be4576040517f08c379a0000000000000000000000000000000000000000000000000000000008152600401611bdb90612e3e565b60405180910390fd5b50505050565b60606000821415611c32576040518060400160405280600181526020017f30000000000000000000000000000000000000000000000000000000000000008152509050611d92565b600082905060005b60008214611c64578080611c4d90613346565b915050600a82611c5d91906131c8565b9150611c3a565b60008167ffffffffffffffff811115611ca6577f4e487b7100000000000000000000000000000000000000000000000000000000600052604160045260246000fd5b6040519080825280601f01601f191660200182016040528015611cd85781602001600182028036833780820191505090505b5090505b60008514611d8b57600182611cf191906131f9565b9150600a85611d00919061338f565b6030611d0c9190613172565b60f81b818381518110611d48577f4e487b7100000000000000000000000000000000000000000000000000000000600052603260045260246000fd5b60200101907effffffffffffffffffffffffffffffffffffffffffffffffffffffffffffff1916908160001a905350600a85611d8491906131c8565b9450611cdc565b8093505050505b919050565b60007f01ffc9a7000000000000000000000000000000000000000000000000000000007bffffffffffffffffffffffffffffffffffffffffffffffffffffffff1916827bffffffffffffffffffffffffffffffffffffffffffffffffffffffff1916149050919050565b611e0c838383612107565b600073ffffffffffffffffffffffffffffffffffffffff168373ffffffffffffffffffffffffffffffffffffffff161415611e4f57611e4a8161210c565b611e8e565b8173ffffffffffffffffffffffffffffffffffffffff168373ffffffffffffffffffffffffffffffffffffffff1614611e8d57611e8c8382612155565b5b5b600073ffffffffffffffffffffffffffffffffffffffff168273ffffffffffffffffffffffffffffffffffffffff161415611ed157611ecc816122c2565b611f10565b8273ffffffffffffffffffffffffffffffffffffffff168273ffffffffffffffffffffffffffffffffffffffff1614611f0f57611f0e8282612405565b5b5b505050565b611f1f8383612484565b611f2c6000848484611f70565b611f6b576040517f08c379a0000000000000000000000000000000000000000000000000000000008152600401611f6290612e3e565b60405180910390fd5b505050565b6000611f918473ffffffffffffffffffffffffffffffffffffffff16612652565b156120fa578373ffffffffffffffffffffffffffffffffffffffff1663150b7a02611fba611695565b8786866040518563ffffffff1660e01b8152600401611fdc9493929190612d95565b602060405180830381600087803b158015611ff657600080fd5b505af192505050801561202757506040513d601f19601f820116820180604052508101906120249190612906565b60015b6120aa573d8060008114612057576040519150601f19603f3d011682016040523d82523d6000602084013e61205c565b606091505b506000815114156120a2576040517f08c379a000000000000000000000000000000000000000000000000000000000815260040161209990612e3e565b60405180910390fd5b805181602001fd5b63150b7a0260e01b7bffffffffffffffffffffffffffffffffffffffffffffffffffffffff1916817bffffffffffffffffffffffffffffffffffffffffffffffffffffffff1916149150506120ff565b600190505b949350505050565b505050565b6008805490506009600083815260200190815260200160002081905550600881908060018154018082558091505060019003906000526020600020016000909190919091505550565b6000600161216284610f9f565b61216c91906131f9565b9050600060076000848152602001908152602001600020549050818114612251576000600660008673ffffffffffffffffffffffffffffffffffffffff1673ffffffffffffffffffffffffffffffffffffffff168152602001908152602001600020600084815260200190815260200160002054905080600660008773ffffffffffffffffffffffffffffffffffffffff1673ffffffffffffffffffffffffffffffffffffffff168152602001908152602001600020600084815260200190815260200160002081905550816007600083815260200190815260200160002081905550505b6007600084815260200190815260200160002060009055600660008573ffffffffffffffffffffffffffffffffffffffff1673ffffffffffffffffffffffffffffffffffffffff16815260200190815260200160002060008381526020019081526020016000206000905550505050565b600060016008805490506122d691906131f9565b905060006009600084815260200190815260200160002054905060006008838154811061232c577f4e487b7100000000000000000000000000000000000000000000000000000000600052603260045260246000fd5b906000526020600020015490508060088381548110612374577f4e487b7100000000000000000000000000000000000000000000000000000000600052603260045260246000fd5b9060005260206000200181905550816009600083815260200190815260200160002081905550600960008581526020019081526020016000206000905560088054806123e9577f4e487b7100000000000000000000000000000000000000000000000000000000600052603160045260246000fd5b6001900381819060005260206000200160009055905550505050565b600061241083610f9f565b905081600660008573ffffffffffffffffffffffffffffffffffffffff1673ffffffffffffffffffffffffffffffffffffffff168152602001908152602001600020600083815260200190815260200160002081905550806007600084815260200190815260200160002081905550505050565b600073ffffffffffffffffffffffffffffffffffffffff168273ffffffffffffffffffffffffffffffffffffffff1614156124f4576040517f08c379a00000000000000000000000000000000000000000000000000000000081526004016124eb90612f7e565b60405180910390fd5b6124fd81611629565b1561253d576040517f08c379a000000000000000000000000000000000000000000000000000000000815260040161253490612e7e565b60405180910390fd5b61254960008383611e01565b6001600360008473ffffffffffffffffffffffffffffffffffffffff1673ffffffffffffffffffffffffffffffffffffffff16815260200190815260200160002060008282546125999190613172565b92505081905550816002600083815260200190815260200160002060006101000a81548173ffffffffffffffffffffffffffffffffffffffff021916908373ffffffffffffffffffffffffffffffffffffffff160217905550808273ffffffffffffffffffffffffffffffffffffffff16600073ffffffffffffffffffffffffffffffffffffffff167fddf252ad1be2c89b69c2b068fc378daa952ba7f163c4a11628f55a4df523b3ef60405160405180910390a45050565b600080823b905060008111915050919050565b6000612678612673846130fe565b6130d9565b90508281526020810184848401111561269057600080fd5b61269b8482856132a1565b509392505050565b6000813590506126b281613a50565b92915050565b6000813590506126c781613a67565b92915050565b6000813590506126dc81613a7e565b92915050565b6000815190506126f181613a7e565b92915050565b600082601f83011261270857600080fd5b8135612718848260208601612665565b91505092915050565b60008135905061273081613a95565b92915050565b60006020828403121561274857600080fd5b6000612756848285016126a3565b91505092915050565b6000806040838503121561277257600080fd5b6000612780858286016126a3565b9250506020612791858286016126a3565b9150509250929050565b6000806000606084860312156127b057600080fd5b60006127be868287016126a3565b93505060206127cf868287016126a3565b92505060406127e086828701612721565b9150509250925092565b6000806000806080858703121561280057600080fd5b600061280e878288016126a3565b945050602061281f878288016126a3565b935050604061283087828801612721565b925050606085013567ffffffffffffffff81111561284d57600080fd5b612859878288016126f7565b91505092959194509250565b6000806040838503121561287857600080fd5b6000612886858286016126a3565b9250506020612897858286016126b8565b9150509250929050565b600080604083850312156128b457600080fd5b60006128c2858286016126a3565b92505060206128d385828601612721565b9150509250929050565b6000602082840312156128ef57600080fd5b60006128fd848285016126cd565b91505092915050565b60006020828403121561291857600080fd5b6000612926848285016126e2565b91505092915050565b60006020828403121561294157600080fd5b600061294f84828501612721565b91505092915050565b6129618161322d565b82525050565b6129708161323f565b82525050565b60006129818261312f565b61298b8185613145565b935061299b8185602086016132b0565b6129a48161347c565b840191505092915050565b60006129ba8261313a565b6129c48185613156565b93506129d48185602086016132b0565b6129dd8161347c565b840191505092915050565b60006129f38261313a565b6129fd8185613167565b9350612a0d8185602086016132b0565b80840191505092915050565b6000612a26602b83613156565b9150612a318261348d565b604082019050919050565b6000612a49603283613156565b9150612a54826134dc565b604082019050919050565b6000612a6c602683613156565b9150612a778261352b565b604082019050919050565b6000612a8f601c83613156565b9150612a9a8261357a565b602082019050919050565b6000612ab2602483613156565b9150612abd826135a3565b604082019050919050565b6000612ad5601983613156565b9150612ae0826135f2565b602082019050919050565b6000612af8602883613167565b9150612b038261361b565b602882019050919050565b6000612b1b602c83613156565b9150612b268261366a565b604082019050919050565b6000612b3e603883613156565b9150612b49826136b9565b604082019050919050565b6000612b61602a83613156565b9150612b6c82613708565b604082019050919050565b6000612b84602983613156565b9150612b8f82613757565b604082019050919050565b6000612ba7600f83613156565b9150612bb2826137a6565b602082019050919050565b6000612bca602083613156565b9150612bd5826137cf565b602082019050919050565b6000612bed602c83613156565b9150612bf8826137f8565b604082019050919050565b6000612c10600583613167565b9150612c1b82613847565b600582019050919050565b6000612c33602083613156565b9150612c3e82613870565b602082019050919050565b6000612c56602983613156565b9150612c6182613899565b604082019050919050565b6000612c79602183613156565b9150612c84826138e8565b604082019050919050565b6000612c9c603183613156565b9150612ca782613937565b604082019050919050565b6000612cbf602c83613156565b9150612cca82613986565b604082019050919050565b6000612ce2601483613156565b9150612ced826139d5565b602082019050919050565b6000612d05601f83613156565b9150612d10826139fe565b602082019050919050565b6000612d28600d83613156565b9150612d3382613a27565b602082019050919050565b612d4781613297565b82525050565b6000612d5882612aeb565b9150612d6482846129e8565b9150612d6f82612c03565b915081905092915050565b6000602082019050612d8f6000830184612958565b92915050565b6000608082019050612daa6000830187612958565b612db76020830186612958565b612dc46040830185612d3e565b8181036060830152612dd68184612976565b905095945050505050565b6000602082019050612df66000830184612967565b92915050565b60006020820190508181036000830152612e1681846129af565b905092915050565b60006020820190508181036000830152612e3781612a19565b9050919050565b60006020820190508181036000830152612e5781612a3c565b9050919050565b60006020820190508181036000830152612e7781612a5f565b9050919050565b60006020820190508181036000830152612e9781612a82565b9050919050565b60006020820190508181036000830152612eb781612aa5565b9050919050565b60006020820190508181036000830152612ed781612ac8565b9050919050565b60006020820190508181036000830152612ef781612b0e565b9050919050565b60006020820190508181036000830152612f1781612b31565b9050919050565b60006020820190508181036000830152612f3781612b54565b9050919050565b60006020820190508181036000830152612f5781612b77565b9050919050565b60006020820190508181036000830152612f7781612b9a565b9050919050565b60006020820190508181036000830152612f9781612bbd565b9050919050565b60006020820190508181036000830152612fb781612be0565b9050919050565b60006020820190508181036000830152612fd781612c26565b9050919050565b60006020820190508181036000830152612ff781612c49565b9050919050565b6000602082019050818103600083015261301781612c6c565b9050919050565b6000602082019050818103600083015261303781612c8f565b9050919050565b6000602082019050818103600083015261305781612cb2565b9050919050565b6000602082019050818103600083015261307781612cd5565b9050919050565b6000602082019050818103600083015261309781612cf8565b9050919050565b600060208201905081810360008301526130b781612d1b565b9050919050565b60006020820190506130d36000830184612d3e565b92915050565b60006130e36130f4565b90506130ef8282613315565b919050565b6000604051905090565b600067ffffffffffffffff8211156131195761311861344d565b5b6131228261347c565b9050602081019050919050565b600081519050919050565b600081519050919050565b600082825260208201905092915050565b600082825260208201905092915050565b600081905092915050565b600061317d82613297565b915061318883613297565b9250827fffffffffffffffffffffffffffffffffffffffffffffffffffffffffffffffff038211156131bd576131bc6133c0565b5b828201905092915050565b60006131d382613297565b91506131de83613297565b9250826131ee576131ed6133ef565b5b828204905092915050565b600061320482613297565b915061320f83613297565b925082821015613222576132216133c0565b5b828203905092915050565b600061323882613277565b9050919050565b60008115159050919050565b60007fffffffff0000000000000000000000000000000000000000000000000000000082169050919050565b600073ffffffffffffffffffffffffffffffffffffffff82169050919050565b6000819050919050565b82818337600083830152505050565b60005b838110156132ce5780820151818401526020810190506132b3565b838111156132dd576000848401525b50505050565b600060028204905060018216806132fb57607f821691505b6020821081141561330f5761330e61341e565b5b50919050565b61331e8261347c565b810181811067ffffffffffffffff8211171561333d5761333c61344d565b5b80604052505050565b600061335182613297565b91507fffffffffffffffffffffffffffffffffffffffffffffffffffffffffffffffff821415613384576133836133c0565b5b600182019050919050565b600061339a82613297565b91506133a583613297565b9250826133b5576133b46133ef565b5b828206905092915050565b7f4e487b7100000000000000000000000000000000000000000000000000000000600052601160045260246000fd5b7f4e487b7100000000000000000000000000000000000000000000000000000000600052601260045260246000fd5b7f4e487b7100000000000000000000000000000000000000000000000000000000600052602260045260246000fd5b7f4e487b7100000000000000000000000000000000000000000000000000000000600052604160045260246000fd5b6000601f19601f8301169050919050565b7f455243373231456e756d657261626c653a206f776e657220696e646578206f7560008201527f74206f6620626f756e6473000000000000000000000000000000000000000000602082015250565b7f4552433732313a207472616e7366657220746f206e6f6e20455243373231526560008201527f63656976657220696d706c656d656e7465720000000000000000000000000000602082015250565b7f4f776e61626c653a206e6577206f776e657220697320746865207a65726f206160008201527f6464726573730000000000000000000000000000000000000000000000000000602082015250565b7f4552433732313a20746f6b656e20616c7265616479206d696e74656400000000600082015250565b7f4552433732313a207472616e7366657220746f20746865207a65726f2061646460008201527f7265737300000000000000000000000000000000000000000000000000000000602082015250565b7f4552433732313a20617070726f766520746f2063616c6c657200000000000000600082015250565b7f68747470733a2f2f7377616770616e64612e73332e616d617a6f6e6177732e6360008201527f6f6d2f6d6574612f000000000000000000000000000000000000000000000000602082015250565b7f4552433732313a206f70657261746f7220717565727920666f72206e6f6e657860008201527f697374656e7420746f6b656e0000000000000000000000000000000000000000602082015250565b7f4552433732313a20617070726f76652063616c6c6572206973206e6f74206f7760008201527f6e6572206e6f7220617070726f76656420666f7220616c6c0000000000000000602082015250565b7f4552433732313a2062616c616e636520717565727920666f7220746865207a6560008201527f726f206164647265737300000000000000000000000000000000000000000000602082015250565b7f4552433732313a206f776e657220717565727920666f72206e6f6e657869737460008201527f656e7420746f6b656e0000000000000000000000000000000000000000000000602082015250565b7f746f6b656e496420696e76616c69640000000000000000000000000000000000600082015250565b7f4552433732313a206d696e7420746f20746865207a65726f2061646472657373600082015250565b7f4552433732313a20617070726f76656420717565727920666f72206e6f6e657860008201527f697374656e7420746f6b656e0000000000000000000000000000000000000000602082015250565b7f2e6a736f6e000000000000000000000000000000000000000000000000000000600082015250565b7f4f776e61626c653a2063616c6c6572206973206e6f7420746865206f776e6572600082015250565b7f4552433732313a207472616e73666572206f6620746f6b656e2074686174206960008201527f73206e6f74206f776e0000000000000000000000000000000000000000000000602082015250565b7f4552433732313a20617070726f76616c20746f2063757272656e74206f776e6560008201527f7200000000000000000000000000000000000000000000000000000000000000602082015250565b7f4552433732313a207472616e736665722063616c6c6572206973206e6f74206f60008201527f776e6572206e6f7220617070726f766564000000000000000000000000000000602082015250565b7f455243373231456e756d657261626c653a20676c6f62616c20696e646578206f60008201527f7574206f6620626f756e64730000000000000000000000000000000000000000602082015250565b7f6c657373207468616e20636f7374546f4d696e74000000000000000000000000600082015250565b7f5265656e7472616e637947756172643a207265656e7472616e742063616c6c00600082015250565b7f546f6b656e20696e76616c696400000000000000000000000000000000000000600082015250565b613a598161322d565b8114613a6457600080fd5b50565b613a708161323f565b8114613a7b57600080fd5b50565b613a878161324b565b8114613a9257600080fd5b50565b613a9e81613297565b8114613aa957600080fd5b5056fea26469706673582212207ba4f66f3eba7652cc374f1cf9f5ca6aadc1ede1c17039c69d25607c32b57e0164736f6c63430008040033",
  "linkReferences": {},
  "deployedLinkReferences": {}
}