{
  "_format": "hh-sol-artifact-1",
  "contractName": "SwagPanda",
  "sourceName": "contracts/SwagPanda.sol",
  "abi": [
    {
      "inputs": [],
      "stateMutability": "nonpayable",
      "type": "constructor"
    },
    {
      "anonymous": false,
      "inputs": [
        {
          "indexed": true,
          "internalType": "address",
          "name": "owner",
          "type": "address"
        },
        {
          "indexed": true,
          "internalType": "address",
          "name": "approved",
          "type": "address"
        },
        {
          "indexed": true,
          "internalType": "uint256",
          "name": "tokenId",
          "type": "uint256"
        }
      ],
      "name": "Approval",
      "type": "event"
    },
    {
      "anonymous": false,
      "inputs": [
        {
          "indexed": true,
          "internalType": "address",
          "name": "owner",
          "type": "address"
        },
        {
          "indexed": true,
          "internalType": "address",
          "name": "operator",
          "type": "address"
        },
        {
          "indexed": false,
          "internalType": "bool",
          "name": "approved",
          "type": "bool"
        }
      ],
      "name": "ApprovalForAll",
      "type": "event"
    },
    {
      "anonymous": false,
      "inputs": [
        {
          "indexed": true,
          "internalType": "address",
          "name": "previousOwner",
          "type": "address"
        },
        {
          "indexed": true,
          "internalType": "address",
          "name": "newOwner",
          "type": "address"
        }
      ],
      "name": "OwnershipTransferred",
      "type": "event"
    },
    {
      "anonymous": false,
      "inputs": [
        {
          "indexed": true,
          "internalType": "address",
          "name": "from",
          "type": "address"
        },
        {
          "indexed": true,
          "internalType": "address",
          "name": "to",
          "type": "address"
        },
        {
          "indexed": true,
          "internalType": "uint256",
          "name": "tokenId",
          "type": "uint256"
        }
      ],
      "name": "Transfer",
      "type": "event"
    },
    {
      "inputs": [],
      "name": "_currentTokenId",
      "outputs": [
        {
          "internalType": "uint256",
          "name": "",
          "type": "uint256"
        }
      ],
      "stateMutability": "view",
      "type": "function"
    },
    {
      "inputs": [
        {
          "internalType": "address",
          "name": "to",
          "type": "address"
        },
        {
          "internalType": "uint256",
          "name": "tokenId",
          "type": "uint256"
        }
      ],
      "name": "approve",
      "outputs": [],
      "stateMutability": "nonpayable",
      "type": "function"
    },
    {
      "inputs": [
        {
          "internalType": "address",
          "name": "owner",
          "type": "address"
        }
      ],
      "name": "balanceOf",
      "outputs": [
        {
          "internalType": "uint256",
          "name": "",
          "type": "uint256"
        }
      ],
      "stateMutability": "view",
      "type": "function"
    },
    {
      "inputs": [
        {
          "internalType": "uint256",
          "name": "_tokenId",
          "type": "uint256"
        }
      ],
      "name": "claim",
      "outputs": [],
      "stateMutability": "payable",
      "type": "function"
    },
    {
      "inputs": [],
      "name": "costToMint",
      "outputs": [
        {
          "internalType": "uint256",
          "name": "",
          "type": "uint256"
        }
      ],
      "stateMutability": "view",
      "type": "function"
    },
    {
      "inputs": [
        {
          "internalType": "uint256",
          "name": "tokenId",
          "type": "uint256"
        }
      ],
      "name": "getApproved",
      "outputs": [
        {
          "internalType": "address",
          "name": "",
          "type": "address"
        }
      ],
      "stateMutability": "view",
      "type": "function"
    },
    {
      "inputs": [
        {
          "internalType": "address",
          "name": "owner",
          "type": "address"
        },
        {
          "internalType": "address",
          "name": "operator",
          "type": "address"
        }
      ],
      "name": "isApprovedForAll",
      "outputs": [
        {
          "internalType": "bool",
          "name": "",
          "type": "bool"
        }
      ],
      "stateMutability": "view",
      "type": "function"
    },
    {
      "inputs": [],
      "name": "name",
      "outputs": [
        {
          "internalType": "string",
          "name": "",
          "type": "string"
        }
      ],
      "stateMutability": "view",
      "type": "function"
    },
    {
      "inputs": [],
      "name": "owner",
      "outputs": [
        {
          "internalType": "address",
          "name": "",
          "type": "address"
        }
      ],
      "stateMutability": "view",
      "type": "function"
    },
    {
      "inputs": [],
      "name": "ownerClaim",
      "outputs": [],
      "stateMutability": "nonpayable",
      "type": "function"
    },
    {
      "inputs": [
        {
          "internalType": "uint256",
          "name": "tokenId",
          "type": "uint256"
        }
      ],
      "name": "ownerOf",
      "outputs": [
        {
          "internalType": "address",
          "name": "",
          "type": "address"
        }
      ],
      "stateMutability": "view",
      "type": "function"
    },
    {
      "inputs": [],
      "name": "renounceOwnership",
      "outputs": [],
      "stateMutability": "nonpayable",
      "type": "function"
    },
    {
      "inputs": [
        {
          "internalType": "address",
          "name": "from",
          "type": "address"
        },
        {
          "internalType": "address",
          "name": "to",
          "type": "address"
        },
        {
          "internalType": "uint256",
          "name": "tokenId",
          "type": "uint256"
        }
      ],
      "name": "safeTransferFrom",
      "outputs": [],
      "stateMutability": "nonpayable",
      "type": "function"
    },
    {
      "inputs": [
        {
          "internalType": "address",
          "name": "from",
          "type": "address"
        },
        {
          "internalType": "address",
          "name": "to",
          "type": "address"
        },
        {
          "internalType": "uint256",
          "name": "tokenId",
          "type": "uint256"
        },
        {
          "internalType": "bytes",
          "name": "_data",
          "type": "bytes"
        }
      ],
      "name": "safeTransferFrom",
      "outputs": [],
      "stateMutability": "nonpayable",
      "type": "function"
    },
    {
      "inputs": [
        {
          "internalType": "address",
          "name": "operator",
          "type": "address"
        },
        {
          "internalType": "bool",
          "name": "approved",
          "type": "bool"
        }
      ],
      "name": "setApprovalForAll",
      "outputs": [],
      "stateMutability": "nonpayable",
      "type": "function"
    },
    {
      "inputs": [
        {
          "internalType": "uint256",
          "name": "_costToMint",
          "type": "uint256"
        }
      ],
      "name": "setCostToMint",
      "outputs": [],
      "stateMutability": "nonpayable",
      "type": "function"
    },
    {
      "inputs": [
        {
          "internalType": "bytes4",
          "name": "interfaceId",
          "type": "bytes4"
        }
      ],
      "name": "supportsInterface",
      "outputs": [
        {
          "internalType": "bool",
          "name": "",
          "type": "bool"
        }
      ],
      "stateMutability": "view",
      "type": "function"
    },
    {
      "inputs": [],
      "name": "symbol",
      "outputs": [
        {
          "internalType": "string",
          "name": "",
          "type": "string"
        }
      ],
      "stateMutability": "view",
      "type": "function"
    },
    {
      "inputs": [
        {
          "internalType": "uint256",
          "name": "index",
          "type": "uint256"
        }
      ],
      "name": "tokenByIndex",
      "outputs": [
        {
          "internalType": "uint256",
          "name": "",
          "type": "uint256"
        }
      ],
      "stateMutability": "view",
      "type": "function"
    },
    {
      "inputs": [
        {
          "internalType": "address",
          "name": "owner",
          "type": "address"
        },
        {
          "internalType": "uint256",
          "name": "index",
          "type": "uint256"
        }
      ],
      "name": "tokenOfOwnerByIndex",
      "outputs": [
        {
          "internalType": "uint256",
          "name": "",
          "type": "uint256"
        }
      ],
      "stateMutability": "view",
      "type": "function"
    },
    {
      "inputs": [
        {
          "internalType": "uint256",
          "name": "tokenId",
          "type": "uint256"
        }
      ],
      "name": "tokenURI",
      "outputs": [
        {
          "internalType": "string",
          "name": "",
          "type": "string"
        }
      ],
      "stateMutability": "pure",
      "type": "function"
    },
    {
      "inputs": [],
      "name": "totalSupply",
      "outputs": [
        {
          "internalType": "uint256",
          "name": "",
          "type": "uint256"
        }
      ],
      "stateMutability": "view",
      "type": "function"
    },
    {
      "inputs": [
        {
          "internalType": "address",
          "name": "from",
          "type": "address"
        },
        {
          "internalType": "address",
          "name": "to",
          "type": "address"
        },
        {
          "internalType": "uint256",
          "name": "tokenId",
          "type": "uint256"
        }
      ],
      "name": "transferFrom",
      "outputs": [],
      "stateMutability": "nonpayable",
      "type": "function"
    },
    {
      "inputs": [
        {
          "internalType": "address",
          "name": "newOwner",
          "type": "address"
        }
      ],
      "name": "transferOwnership",
      "outputs": [],
      "stateMutability": "nonpayable",
      "type": "function"
    }
  ],
  "bytecode": "0x60806040526001600c55662386f26fc10000600d553480156200002157600080fd5b506040518060400160405280600a81526020017f537761672050616e6461000000000000000000000000000000000000000000008152506040518060400160405280600a81526020017f537761672050616e6461000000000000000000000000000000000000000000008152508160009080519060200190620000a6929190620001be565b508060019080519060200190620000bf929190620001be565b5050506001600a81905550620000ea620000de620000f060201b60201c565b620000f860201b60201c565b620002d3565b600033905090565b6000600b60009054906101000a900473ffffffffffffffffffffffffffffffffffffffff16905081600b60006101000a81548173ffffffffffffffffffffffffffffffffffffffff021916908373ffffffffffffffffffffffffffffffffffffffff1602179055508173ffffffffffffffffffffffffffffffffffffffff168173ffffffffffffffffffffffffffffffffffffffff167f8be0079c531659141344cd1fd0a4f28419497f9722a3daafe3b4186f6b6457e060405160405180910390a35050565b828054620001cc906200026e565b90600052602060002090601f016020900481019282620001f057600085556200023c565b82601f106200020b57805160ff19168380011785556200023c565b828001600101855582156200023c579182015b828111156200023b5782518255916020019190600101906200021e565b5b5090506200024b91906200024f565b5090565b5b808211156200026a57600081600090555060010162000250565b5090565b600060028204905060018216806200028757607f821691505b602082108114156200029e576200029d620002a4565b5b50919050565b7f4e487b7100000000000000000000000000000000000000000000000000000000600052602260045260246000fd5b6138c280620002e36000396000f3fe60806040526004361061014b5760003560e01c80636352211e116100b6578063b88d4fde1161006f578063b88d4fde14610481578063c87b56dd146104aa578063c963483c146104e7578063e985e9c514610512578063ecbeefec1461054f578063f2fde38b1461057a5761014b565b80636352211e1461037157806370a08231146103ae578063715018a6146103eb5780638da5cb5b1461040257806395d89b411461042d578063a22cb465146104585761014b565b80632f745c59116101085780632f745c5914610272578063379607f5146102af57806342842e0e146102cb5780634dbe5889146102f45780634f6ccce71461030b5780636000fbcc146103485761014b565b806301ffc9a71461015057806306fdde031461018d578063081812fc146101b8578063095ea7b3146101f557806318160ddd1461021e57806323b872dd14610249575b600080fd5b34801561015c57600080fd5b50610177600480360381019061017291906126bd565b6105a3565b6040516101849190612bc1565b60405180910390f35b34801561019957600080fd5b506101a261061d565b6040516101af9190612bdc565b60405180910390f35b3480156101c457600080fd5b506101df60048036038101906101da919061270f565b6106af565b6040516101ec9190612b5a565b60405180910390f35b34801561020157600080fd5b5061021c60048036038101906102179190612681565b610734565b005b34801561022a57600080fd5b5061023361084c565b6040516102409190612e9e565b60405180910390f35b34801561025557600080fd5b50610270600480360381019061026b919061257b565b610859565b005b34801561027e57600080fd5b5061029960048036038101906102949190612681565b6108b9565b6040516102a69190612e9e565b60405180910390f35b6102c960048036038101906102c4919061270f565b61095e565b005b3480156102d757600080fd5b506102f260048036038101906102ed919061257b565b610a5b565b005b34801561030057600080fd5b50610309610a7b565b005b34801561031757600080fd5b50610332600480360381019061032d919061270f565b610bb0565b60405161033f9190612e9e565b60405180910390f35b34801561035457600080fd5b5061036f600480360381019061036a919061270f565b610c47565b005b34801561037d57600080fd5b506103986004803603810190610393919061270f565b610ccd565b6040516103a59190612b5a565b60405180910390f35b3480156103ba57600080fd5b506103d560048036038101906103d09190612516565b610d7f565b6040516103e29190612e9e565b60405180910390f35b3480156103f757600080fd5b50610400610e37565b005b34801561040e57600080fd5b50610417610ebf565b6040516104249190612b5a565b60405180910390f35b34801561043957600080fd5b50610442610ee9565b60405161044f9190612bdc565b60405180910390f35b34801561046457600080fd5b5061047f600480360381019061047a9190612645565b610f7b565b005b34801561048d57600080fd5b506104a860048036038101906104a391906125ca565b6110fc565b005b3480156104b657600080fd5b506104d160048036038101906104cc919061270f565b61115e565b6040516104de9190612bdc565b60405180910390f35b3480156104f357600080fd5b506104fc61118f565b6040516105099190612e9e565b60405180910390f35b34801561051e57600080fd5b506105396004803603810190610534919061253f565b611195565b6040516105469190612bc1565b60405180910390f35b34801561055b57600080fd5b50610564611229565b6040516105719190612e9e565b60405180910390f35b34801561058657600080fd5b506105a1600480360381019061059c9190612516565b61122f565b005b60007f780e9d63000000000000000000000000000000000000000000000000000000007bffffffffffffffffffffffffffffffffffffffffffffffffffffffff1916827bffffffffffffffffffffffffffffffffffffffffffffffffffffffff19161480610616575061061582611327565b5b9050919050565b60606000805461062c906130c3565b80601f0160208091040260200160405190810160405280929190818152602001828054610658906130c3565b80156106a55780601f1061067a576101008083540402835291602001916106a5565b820191906000526020600020905b81548152906001019060200180831161068857829003601f168201915b5050505050905090565b60006106ba82611409565b6106f9576040517f08c379a00000000000000000000000000000000000000000000000000000000081526004016106f090612d7e565b60405180910390fd5b6004600083815260200190815260200160002060009054906101000a900473ffffffffffffffffffffffffffffffffffffffff169050919050565b600061073f82610ccd565b90508073ffffffffffffffffffffffffffffffffffffffff168373ffffffffffffffffffffffffffffffffffffffff1614156107b0576040517f08c379a00000000000000000000000000000000000000000000000000000000081526004016107a790612dde565b60405180910390fd5b8073ffffffffffffffffffffffffffffffffffffffff166107cf611475565b73ffffffffffffffffffffffffffffffffffffffff1614806107fe57506107fd816107f8611475565b611195565b5b61083d576040517f08c379a000000000000000000000000000000000000000000000000000000000815260040161083490612cde565b60405180910390fd5b610847838361147d565b505050565b6000600880549050905090565b61086a610864611475565b82611536565b6108a9576040517f08c379a00000000000000000000000000000000000000000000000000000000081526004016108a090612dfe565b60405180910390fd5b6108b4838383611614565b505050565b60006108c483610d7f565b8210610905576040517f08c379a00000000000000000000000000000000000000000000000000000000081526004016108fc90612bfe565b60405180910390fd5b600660008473ffffffffffffffffffffffffffffffffffffffff1673ffffffffffffffffffffffffffffffffffffffff168152602001908152602001600020600083815260200190815260200160002054905092915050565b6002600a5414156109a4576040517f08c379a000000000000000000000000000000000000000000000000000000000815260040161099b90612e5e565b60405180910390fd5b6002600a8190555061080281106109f0576040517f08c379a00000000000000000000000000000000000000000000000000000000081526004016109e790612d3e565b60405180910390fd5b600d54341015610a35576040517f08c379a0000000000000000000000000000000000000000000000000000000008152600401610a2c90612e3e565b60405180910390fd5b610a48610a40611475565b600c54611870565b610a5061188e565b6001600a8190555050565b610a76838383604051806020016040528060008152506110fc565b505050565b6002600a541415610ac1576040517f08c379a0000000000000000000000000000000000000000000000000000000008152600401610ab890612e5e565b60405180910390fd5b6002600a81905550610ad1611475565b73ffffffffffffffffffffffffffffffffffffffff16610aef610ebf565b73ffffffffffffffffffffffffffffffffffffffff1614610b45576040517f08c379a0000000000000000000000000000000000000000000000000000000008152600401610b3c90612d9e565b60405180910390fd5b611069600c5410610b8b576040517f08c379a0000000000000000000000000000000000000000000000000000000008152600401610b8290612e7e565b60405180910390fd5b610b9e610b96610ebf565b600c54611870565b610ba661188e565b6001600a81905550565b6000610bba61084c565b8210610bfb576040517f08c379a0000000000000000000000000000000000000000000000000000000008152600401610bf290612e1e565b60405180910390fd5b60088281548110610c35577f4e487b7100000000000000000000000000000000000000000000000000000000600052603260045260246000fd5b90600052602060002001549050919050565b610c4f611475565b73ffffffffffffffffffffffffffffffffffffffff16610c6d610ebf565b73ffffffffffffffffffffffffffffffffffffffff1614610cc3576040517f08c379a0000000000000000000000000000000000000000000000000000000008152600401610cba90612d9e565b60405180910390fd5b80600d8190555050565b6000806002600084815260200190815260200160002060009054906101000a900473ffffffffffffffffffffffffffffffffffffffff169050600073ffffffffffffffffffffffffffffffffffffffff168173ffffffffffffffffffffffffffffffffffffffff161415610d76576040517f08c379a0000000000000000000000000000000000000000000000000000000008152600401610d6d90612d1e565b60405180910390fd5b80915050919050565b60008073ffffffffffffffffffffffffffffffffffffffff168273ffffffffffffffffffffffffffffffffffffffff161415610df0576040517f08c379a0000000000000000000000000000000000000000000000000000000008152600401610de790612cfe565b60405180910390fd5b600360008373ffffffffffffffffffffffffffffffffffffffff1673ffffffffffffffffffffffffffffffffffffffff168152602001908152602001600020549050919050565b610e3f611475565b73ffffffffffffffffffffffffffffffffffffffff16610e5d610ebf565b73ffffffffffffffffffffffffffffffffffffffff1614610eb3576040517f08c379a0000000000000000000000000000000000000000000000000000000008152600401610eaa90612d9e565b60405180910390fd5b610ebd60006118a8565b565b6000600b60009054906101000a900473ffffffffffffffffffffffffffffffffffffffff16905090565b606060018054610ef8906130c3565b80601f0160208091040260200160405190810160405280929190818152602001828054610f24906130c3565b8015610f715780601f10610f4657610100808354040283529160200191610f71565b820191906000526020600020905b815481529060010190602001808311610f5457829003601f168201915b5050505050905090565b610f83611475565b73ffffffffffffffffffffffffffffffffffffffff168273ffffffffffffffffffffffffffffffffffffffff161415610ff1576040517f08c379a0000000000000000000000000000000000000000000000000000000008152600401610fe890612c9e565b60405180910390fd5b8060056000610ffe611475565b73ffffffffffffffffffffffffffffffffffffffff1673ffffffffffffffffffffffffffffffffffffffff16815260200190815260200160002060008473ffffffffffffffffffffffffffffffffffffffff1673ffffffffffffffffffffffffffffffffffffffff16815260200190815260200160002060006101000a81548160ff0219169083151502179055508173ffffffffffffffffffffffffffffffffffffffff166110ab611475565b73ffffffffffffffffffffffffffffffffffffffff167f17307eab39ab6107e8899845ad3d59bd9653f200f220920489ca2b5937696c31836040516110f09190612bc1565b60405180910390a35050565b61110d611107611475565b83611536565b61114c576040517f08c379a000000000000000000000000000000000000000000000000000000000815260040161114390612dfe565b60405180910390fd5b6111588484848461196e565b50505050565b6060611169826119ca565b6040516020016111799190612b2d565b6040516020818303038152906040529050919050565b600c5481565b6000600560008473ffffffffffffffffffffffffffffffffffffffff1673ffffffffffffffffffffffffffffffffffffffff16815260200190815260200160002060008373ffffffffffffffffffffffffffffffffffffffff1673ffffffffffffffffffffffffffffffffffffffff16815260200190815260200160002060009054906101000a900460ff16905092915050565b600d5481565b611237611475565b73ffffffffffffffffffffffffffffffffffffffff16611255610ebf565b73ffffffffffffffffffffffffffffffffffffffff16146112ab576040517f08c379a00000000000000000000000000000000000000000000000000000000081526004016112a290612d9e565b60405180910390fd5b600073ffffffffffffffffffffffffffffffffffffffff168173ffffffffffffffffffffffffffffffffffffffff16141561131b576040517f08c379a000000000000000000000000000000000000000000000000000000000815260040161131290612c3e565b60405180910390fd5b611324816118a8565b50565b60007f80ac58cd000000000000000000000000000000000000000000000000000000007bffffffffffffffffffffffffffffffffffffffffffffffffffffffff1916827bffffffffffffffffffffffffffffffffffffffffffffffffffffffff191614806113f257507f5b5e139f000000000000000000000000000000000000000000000000000000007bffffffffffffffffffffffffffffffffffffffffffffffffffffffff1916827bffffffffffffffffffffffffffffffffffffffffffffffffffffffff1916145b80611402575061140182611b77565b5b9050919050565b60008073ffffffffffffffffffffffffffffffffffffffff166002600084815260200190815260200160002060009054906101000a900473ffffffffffffffffffffffffffffffffffffffff1673ffffffffffffffffffffffffffffffffffffffff1614159050919050565b600033905090565b816004600083815260200190815260200160002060006101000a81548173ffffffffffffffffffffffffffffffffffffffff021916908373ffffffffffffffffffffffffffffffffffffffff160217905550808273ffffffffffffffffffffffffffffffffffffffff166114f083610ccd565b73ffffffffffffffffffffffffffffffffffffffff167f8c5be1e5ebec7d5bd14f71427d1e84f3dd0314c0f7b2291e5b200ac8c7c3b92560405160405180910390a45050565b600061154182611409565b611580576040517f08c379a000000000000000000000000000000000000000000000000000000000815260040161157790612cbe565b60405180910390fd5b600061158b83610ccd565b90508073ffffffffffffffffffffffffffffffffffffffff168473ffffffffffffffffffffffffffffffffffffffff1614806115fa57508373ffffffffffffffffffffffffffffffffffffffff166115e2846106af565b73ffffffffffffffffffffffffffffffffffffffff16145b8061160b575061160a8185611195565b5b91505092915050565b8273ffffffffffffffffffffffffffffffffffffffff1661163482610ccd565b73ffffffffffffffffffffffffffffffffffffffff161461168a576040517f08c379a000000000000000000000000000000000000000000000000000000000815260040161168190612dbe565b60405180910390fd5b600073ffffffffffffffffffffffffffffffffffffffff168273ffffffffffffffffffffffffffffffffffffffff1614156116fa576040517f08c379a00000000000000000000000000000000000000000000000000000000081526004016116f190612c7e565b60405180910390fd5b611705838383611be1565b61171060008261147d565b6001600360008573ffffffffffffffffffffffffffffffffffffffff1673ffffffffffffffffffffffffffffffffffffffff16815260200190815260200160002060008282546117609190612fd9565b925050819055506001600360008473ffffffffffffffffffffffffffffffffffffffff1673ffffffffffffffffffffffffffffffffffffffff16815260200190815260200160002060008282546117b79190612f52565b92505081905550816002600083815260200190815260200160002060006101000a81548173ffffffffffffffffffffffffffffffffffffffff021916908373ffffffffffffffffffffffffffffffffffffffff160217905550808273ffffffffffffffffffffffffffffffffffffffff168473ffffffffffffffffffffffffffffffffffffffff167fddf252ad1be2c89b69c2b068fc378daa952ba7f163c4a11628f55a4df523b3ef60405160405180910390a4505050565b61188a828260405180602001604052806000815250611cf5565b5050565b600c60008154809291906118a190613126565b9190505550565b6000600b60009054906101000a900473ffffffffffffffffffffffffffffffffffffffff16905081600b60006101000a81548173ffffffffffffffffffffffffffffffffffffffff021916908373ffffffffffffffffffffffffffffffffffffffff1602179055508173ffffffffffffffffffffffffffffffffffffffff168173ffffffffffffffffffffffffffffffffffffffff167f8be0079c531659141344cd1fd0a4f28419497f9722a3daafe3b4186f6b6457e060405160405180910390a35050565b611979848484611614565b61198584848484611d50565b6119c4576040517f08c379a00000000000000000000000000000000000000000000000000000000081526004016119bb90612c1e565b60405180910390fd5b50505050565b60606000821415611a12576040518060400160405280600181526020017f30000000000000000000000000000000000000000000000000000000000000008152509050611b72565b600082905060005b60008214611a44578080611a2d90613126565b915050600a82611a3d9190612fa8565b9150611a1a565b60008167ffffffffffffffff811115611a86577f4e487b7100000000000000000000000000000000000000000000000000000000600052604160045260246000fd5b6040519080825280601f01601f191660200182016040528015611ab85781602001600182028036833780820191505090505b5090505b60008514611b6b57600182611ad19190612fd9565b9150600a85611ae0919061316f565b6030611aec9190612f52565b60f81b818381518110611b28577f4e487b7100000000000000000000000000000000000000000000000000000000600052603260045260246000fd5b60200101907effffffffffffffffffffffffffffffffffffffffffffffffffffffffffffff1916908160001a905350600a85611b649190612fa8565b9450611abc565b8093505050505b919050565b60007f01ffc9a7000000000000000000000000000000000000000000000000000000007bffffffffffffffffffffffffffffffffffffffffffffffffffffffff1916827bffffffffffffffffffffffffffffffffffffffffffffffffffffffff1916149050919050565b611bec838383611ee7565b600073ffffffffffffffffffffffffffffffffffffffff168373ffffffffffffffffffffffffffffffffffffffff161415611c2f57611c2a81611eec565b611c6e565b8173ffffffffffffffffffffffffffffffffffffffff168373ffffffffffffffffffffffffffffffffffffffff1614611c6d57611c6c8382611f35565b5b5b600073ffffffffffffffffffffffffffffffffffffffff168273ffffffffffffffffffffffffffffffffffffffff161415611cb157611cac816120a2565b611cf0565b8273ffffffffffffffffffffffffffffffffffffffff168273ffffffffffffffffffffffffffffffffffffffff1614611cef57611cee82826121e5565b5b5b505050565b611cff8383612264565b611d0c6000848484611d50565b611d4b576040517f08c379a0000000000000000000000000000000000000000000000000000000008152600401611d4290612c1e565b60405180910390fd5b505050565b6000611d718473ffffffffffffffffffffffffffffffffffffffff16612432565b15611eda578373ffffffffffffffffffffffffffffffffffffffff1663150b7a02611d9a611475565b8786866040518563ffffffff1660e01b8152600401611dbc9493929190612b75565b602060405180830381600087803b158015611dd657600080fd5b505af1925050508015611e0757506040513d601f19601f82011682018060405250810190611e0491906126e6565b60015b611e8a573d8060008114611e37576040519150601f19603f3d011682016040523d82523d6000602084013e611e3c565b606091505b50600081511415611e82576040517f08c379a0000000000000000000000000000000000000000000000000000000008152600401611e7990612c1e565b60405180910390fd5b805181602001fd5b63150b7a0260e01b7bffffffffffffffffffffffffffffffffffffffffffffffffffffffff1916817bffffffffffffffffffffffffffffffffffffffffffffffffffffffff191614915050611edf565b600190505b949350505050565b505050565b6008805490506009600083815260200190815260200160002081905550600881908060018154018082558091505060019003906000526020600020016000909190919091505550565b60006001611f4284610d7f565b611f4c9190612fd9565b9050600060076000848152602001908152602001600020549050818114612031576000600660008673ffffffffffffffffffffffffffffffffffffffff1673ffffffffffffffffffffffffffffffffffffffff168152602001908152602001600020600084815260200190815260200160002054905080600660008773ffffffffffffffffffffffffffffffffffffffff1673ffffffffffffffffffffffffffffffffffffffff168152602001908152602001600020600084815260200190815260200160002081905550816007600083815260200190815260200160002081905550505b6007600084815260200190815260200160002060009055600660008573ffffffffffffffffffffffffffffffffffffffff1673ffffffffffffffffffffffffffffffffffffffff16815260200190815260200160002060008381526020019081526020016000206000905550505050565b600060016008805490506120b69190612fd9565b905060006009600084815260200190815260200160002054905060006008838154811061210c577f4e487b7100000000000000000000000000000000000000000000000000000000600052603260045260246000fd5b906000526020600020015490508060088381548110612154577f4e487b7100000000000000000000000000000000000000000000000000000000600052603260045260246000fd5b9060005260206000200181905550816009600083815260200190815260200160002081905550600960008581526020019081526020016000206000905560088054806121c9577f4e487b7100000000000000000000000000000000000000000000000000000000600052603160045260246000fd5b6001900381819060005260206000200160009055905550505050565b60006121f083610d7f565b905081600660008573ffffffffffffffffffffffffffffffffffffffff1673ffffffffffffffffffffffffffffffffffffffff168152602001908152602001600020600083815260200190815260200160002081905550806007600084815260200190815260200160002081905550505050565b600073ffffffffffffffffffffffffffffffffffffffff168273ffffffffffffffffffffffffffffffffffffffff1614156122d4576040517f08c379a00000000000000000000000000000000000000000000000000000000081526004016122cb90612d5e565b60405180910390fd5b6122dd81611409565b1561231d576040517f08c379a000000000000000000000000000000000000000000000000000000000815260040161231490612c5e565b60405180910390fd5b61232960008383611be1565b6001600360008473ffffffffffffffffffffffffffffffffffffffff1673ffffffffffffffffffffffffffffffffffffffff16815260200190815260200160002060008282546123799190612f52565b92505081905550816002600083815260200190815260200160002060006101000a81548173ffffffffffffffffffffffffffffffffffffffff021916908373ffffffffffffffffffffffffffffffffffffffff160217905550808273ffffffffffffffffffffffffffffffffffffffff16600073ffffffffffffffffffffffffffffffffffffffff167fddf252ad1be2c89b69c2b068fc378daa952ba7f163c4a11628f55a4df523b3ef60405160405180910390a45050565b600080823b905060008111915050919050565b600061245861245384612ede565b612eb9565b90508281526020810184848401111561247057600080fd5b61247b848285613081565b509392505050565b60008135905061249281613830565b92915050565b6000813590506124a781613847565b92915050565b6000813590506124bc8161385e565b92915050565b6000815190506124d18161385e565b92915050565b600082601f8301126124e857600080fd5b81356124f8848260208601612445565b91505092915050565b60008135905061251081613875565b92915050565b60006020828403121561252857600080fd5b600061253684828501612483565b91505092915050565b6000806040838503121561255257600080fd5b600061256085828601612483565b925050602061257185828601612483565b9150509250929050565b60008060006060848603121561259057600080fd5b600061259e86828701612483565b93505060206125af86828701612483565b92505060406125c086828701612501565b9150509250925092565b600080600080608085870312156125e057600080fd5b60006125ee87828801612483565b94505060206125ff87828801612483565b935050604061261087828801612501565b925050606085013567ffffffffffffffff81111561262d57600080fd5b612639878288016124d7565b91505092959194509250565b6000806040838503121561265857600080fd5b600061266685828601612483565b925050602061267785828601612498565b9150509250929050565b6000806040838503121561269457600080fd5b60006126a285828601612483565b92505060206126b385828601612501565b9150509250929050565b6000602082840312156126cf57600080fd5b60006126dd848285016124ad565b91505092915050565b6000602082840312156126f857600080fd5b6000612706848285016124c2565b91505092915050565b60006020828403121561272157600080fd5b600061272f84828501612501565b91505092915050565b6127418161300d565b82525050565b6127508161301f565b82525050565b600061276182612f0f565b61276b8185612f25565b935061277b818560208601613090565b6127848161325c565b840191505092915050565b600061279a82612f1a565b6127a48185612f36565b93506127b4818560208601613090565b6127bd8161325c565b840191505092915050565b60006127d382612f1a565b6127dd8185612f47565b93506127ed818560208601613090565b80840191505092915050565b6000612806602b83612f36565b91506128118261326d565b604082019050919050565b6000612829603283612f36565b9150612834826132bc565b604082019050919050565b600061284c602683612f36565b91506128578261330b565b604082019050919050565b600061286f601c83612f36565b915061287a8261335a565b602082019050919050565b6000612892602483612f36565b915061289d82613383565b604082019050919050565b60006128b5601983612f36565b91506128c0826133d2565b602082019050919050565b60006128d8602883612f47565b91506128e3826133fb565b602882019050919050565b60006128fb602c83612f36565b91506129068261344a565b604082019050919050565b600061291e603883612f36565b915061292982613499565b604082019050919050565b6000612941602a83612f36565b915061294c826134e8565b604082019050919050565b6000612964602983612f36565b915061296f82613537565b604082019050919050565b6000612987600f83612f36565b915061299282613586565b602082019050919050565b60006129aa602083612f36565b91506129b5826135af565b602082019050919050565b60006129cd602c83612f36565b91506129d8826135d8565b604082019050919050565b60006129f0600583612f47565b91506129fb82613627565b600582019050919050565b6000612a13602083612f36565b9150612a1e82613650565b602082019050919050565b6000612a36602983612f36565b9150612a4182613679565b604082019050919050565b6000612a59602183612f36565b9150612a64826136c8565b604082019050919050565b6000612a7c603183612f36565b9150612a8782613717565b604082019050919050565b6000612a9f602c83612f36565b9150612aaa82613766565b604082019050919050565b6000612ac2601483612f36565b9150612acd826137b5565b602082019050919050565b6000612ae5601f83612f36565b9150612af0826137de565b602082019050919050565b6000612b08600d83612f36565b9150612b1382613807565b602082019050919050565b612b2781613077565b82525050565b6000612b38826128cb565b9150612b4482846127c8565b9150612b4f826129e3565b915081905092915050565b6000602082019050612b6f6000830184612738565b92915050565b6000608082019050612b8a6000830187612738565b612b976020830186612738565b612ba46040830185612b1e565b8181036060830152612bb68184612756565b905095945050505050565b6000602082019050612bd66000830184612747565b92915050565b60006020820190508181036000830152612bf6818461278f565b905092915050565b60006020820190508181036000830152612c17816127f9565b9050919050565b60006020820190508181036000830152612c378161281c565b9050919050565b60006020820190508181036000830152612c578161283f565b9050919050565b60006020820190508181036000830152612c7781612862565b9050919050565b60006020820190508181036000830152612c9781612885565b9050919050565b60006020820190508181036000830152612cb7816128a8565b9050919050565b60006020820190508181036000830152612cd7816128ee565b9050919050565b60006020820190508181036000830152612cf781612911565b9050919050565b60006020820190508181036000830152612d1781612934565b9050919050565b60006020820190508181036000830152612d3781612957565b9050919050565b60006020820190508181036000830152612d578161297a565b9050919050565b60006020820190508181036000830152612d778161299d565b9050919050565b60006020820190508181036000830152612d97816129c0565b9050919050565b60006020820190508181036000830152612db781612a06565b9050919050565b60006020820190508181036000830152612dd781612a29565b9050919050565b60006020820190508181036000830152612df781612a4c565b9050919050565b60006020820190508181036000830152612e1781612a6f565b9050919050565b60006020820190508181036000830152612e3781612a92565b9050919050565b60006020820190508181036000830152612e5781612ab5565b9050919050565b60006020820190508181036000830152612e7781612ad8565b9050919050565b60006020820190508181036000830152612e9781612afb565b9050919050565b6000602082019050612eb36000830184612b1e565b92915050565b6000612ec3612ed4565b9050612ecf82826130f5565b919050565b6000604051905090565b600067ffffffffffffffff821115612ef957612ef861322d565b5b612f028261325c565b9050602081019050919050565b600081519050919050565b600081519050919050565b600082825260208201905092915050565b600082825260208201905092915050565b600081905092915050565b6000612f5d82613077565b9150612f6883613077565b9250827fffffffffffffffffffffffffffffffffffffffffffffffffffffffffffffffff03821115612f9d57612f9c6131a0565b5b828201905092915050565b6000612fb382613077565b9150612fbe83613077565b925082612fce57612fcd6131cf565b5b828204905092915050565b6000612fe482613077565b9150612fef83613077565b925082821015613002576130016131a0565b5b828203905092915050565b600061301882613057565b9050919050565b60008115159050919050565b60007fffffffff0000000000000000000000000000000000000000000000000000000082169050919050565b600073ffffffffffffffffffffffffffffffffffffffff82169050919050565b6000819050919050565b82818337600083830152505050565b60005b838110156130ae578082015181840152602081019050613093565b838111156130bd576000848401525b50505050565b600060028204905060018216806130db57607f821691505b602082108114156130ef576130ee6131fe565b5b50919050565b6130fe8261325c565b810181811067ffffffffffffffff8211171561311d5761311c61322d565b5b80604052505050565b600061313182613077565b91507fffffffffffffffffffffffffffffffffffffffffffffffffffffffffffffffff821415613164576131636131a0565b5b600182019050919050565b600061317a82613077565b915061318583613077565b925082613195576131946131cf565b5b828206905092915050565b7f4e487b7100000000000000000000000000000000000000000000000000000000600052601160045260246000fd5b7f4e487b7100000000000000000000000000000000000000000000000000000000600052601260045260246000fd5b7f4e487b7100000000000000000000000000000000000000000000000000000000600052602260045260246000fd5b7f4e487b7100000000000000000000000000000000000000000000000000000000600052604160045260246000fd5b6000601f19601f8301169050919050565b7f455243373231456e756d657261626c653a206f776e657220696e646578206f7560008201527f74206f6620626f756e6473000000000000000000000000000000000000000000602082015250565b7f4552433732313a207472616e7366657220746f206e6f6e20455243373231526560008201527f63656976657220696d706c656d656e7465720000000000000000000000000000602082015250565b7f4f776e61626c653a206e6577206f776e657220697320746865207a65726f206160008201527f6464726573730000000000000000000000000000000000000000000000000000602082015250565b7f4552433732313a20746f6b656e20616c7265616479206d696e74656400000000600082015250565b7f4552433732313a207472616e7366657220746f20746865207a65726f2061646460008201527f7265737300000000000000000000000000000000000000000000000000000000602082015250565b7f4552433732313a20617070726f766520746f2063616c6c657200000000000000600082015250565b7f68747470733a2f2f7377616770616e64612e73332e616d617a6f6e6177732e6360008201527f6f6d2f6d6574612f000000000000000000000000000000000000000000000000602082015250565b7f4552433732313a206f70657261746f7220717565727920666f72206e6f6e657860008201527f697374656e7420746f6b656e0000000000000000000000000000000000000000602082015250565b7f4552433732313a20617070726f76652063616c6c6572206973206e6f74206f7760008201527f6e6572206e6f7220617070726f76656420666f7220616c6c0000000000000000602082015250565b7f4552433732313a2062616c616e636520717565727920666f7220746865207a6560008201527f726f206164647265737300000000000000000000000000000000000000000000602082015250565b7f4552433732313a206f776e657220717565727920666f72206e6f6e657869737460008201527f656e7420746f6b656e0000000000000000000000000000000000000000000000602082015250565b7f746f6b656e496420696e76616c69640000000000000000000000000000000000600082015250565b7f4552433732313a206d696e7420746f20746865207a65726f2061646472657373600082015250565b7f4552433732313a20617070726f76656420717565727920666f72206e6f6e657860008201527f697374656e7420746f6b656e0000000000000000000000000000000000000000602082015250565b7f2e6a736f6e000000000000000000000000000000000000000000000000000000600082015250565b7f4f776e61626c653a2063616c6c6572206973206e6f7420746865206f776e6572600082015250565b7f4552433732313a207472616e73666572206f6620746f6b656e2074686174206960008201527f73206e6f74206f776e0000000000000000000000000000000000000000000000602082015250565b7f4552433732313a20617070726f76616c20746f2063757272656e74206f776e6560008201527f7200000000000000000000000000000000000000000000000000000000000000602082015250565b7f4552433732313a207472616e736665722063616c6c6572206973206e6f74206f60008201527f776e6572206e6f7220617070726f766564000000000000000000000000000000602082015250565b7f455243373231456e756d657261626c653a20676c6f62616c20696e646578206f60008201527f7574206f6620626f756e64730000000000000000000000000000000000000000602082015250565b7f6c657373207468616e20636f7374546f4d696e74000000000000000000000000600082015250565b7f5265656e7472616e637947756172643a207265656e7472616e742063616c6c00600082015250565b7f546f6b656e20696e76616c696400000000000000000000000000000000000000600082015250565b6138398161300d565b811461384457600080fd5b50565b6138508161301f565b811461385b57600080fd5b50565b6138678161302b565b811461387257600080fd5b50565b61387e81613077565b811461388957600080fd5b5056fea26469706673582212207482547b3f04169c50b491e2034e7e65310b9f8bfad9283b739554c7406f0c8864736f6c63430008040033",
  "linkReferences": {},
  "deployedLinkReferences": {}
}