{
  "_format": "hh-sol-artifact-1",
  "contractName": "SwagPanda",
  "sourceName": "contracts/SwagPanda.sol",
  "abi": [
    {
      "inputs": [],
      "stateMutability": "nonpayable",
      "type": "constructor"
    },
    {
      "anonymous": false,
      "inputs": [
        {
          "indexed": true,
          "internalType": "address",
          "name": "owner",
          "type": "address"
        },
        {
          "indexed": true,
          "internalType": "address",
          "name": "approved",
          "type": "address"
        },
        {
          "indexed": true,
          "internalType": "uint256",
          "name": "tokenId",
          "type": "uint256"
        }
      ],
      "name": "Approval",
      "type": "event"
    },
    {
      "anonymous": false,
      "inputs": [
        {
          "indexed": true,
          "internalType": "address",
          "name": "owner",
          "type": "address"
        },
        {
          "indexed": true,
          "internalType": "address",
          "name": "operator",
          "type": "address"
        },
        {
          "indexed": false,
          "internalType": "bool",
          "name": "approved",
          "type": "bool"
        }
      ],
      "name": "ApprovalForAll",
      "type": "event"
    },
    {
      "anonymous": false,
      "inputs": [
        {
          "indexed": true,
          "internalType": "address",
          "name": "previousOwner",
          "type": "address"
        },
        {
          "indexed": true,
          "internalType": "address",
          "name": "newOwner",
          "type": "address"
        }
      ],
      "name": "OwnershipTransferred",
      "type": "event"
    },
    {
      "anonymous": false,
      "inputs": [
        {
          "indexed": true,
          "internalType": "address",
          "name": "from",
          "type": "address"
        },
        {
          "indexed": true,
          "internalType": "address",
          "name": "to",
          "type": "address"
        },
        {
          "indexed": true,
          "internalType": "uint256",
          "name": "tokenId",
          "type": "uint256"
        }
      ],
      "name": "Transfer",
      "type": "event"
    },
    {
      "inputs": [],
      "name": "_currentTokenId",
      "outputs": [
        {
          "internalType": "uint256",
          "name": "",
          "type": "uint256"
        }
      ],
      "stateMutability": "view",
      "type": "function"
    },
    {
      "inputs": [
        {
          "internalType": "address",
          "name": "to",
          "type": "address"
        },
        {
          "internalType": "uint256",
          "name": "tokenId",
          "type": "uint256"
        }
      ],
      "name": "approve",
      "outputs": [],
      "stateMutability": "nonpayable",
      "type": "function"
    },
    {
      "inputs": [
        {
          "internalType": "address",
          "name": "owner",
          "type": "address"
        }
      ],
      "name": "balanceOf",
      "outputs": [
        {
          "internalType": "uint256",
          "name": "",
          "type": "uint256"
        }
      ],
      "stateMutability": "view",
      "type": "function"
    },
    {
      "inputs": [],
      "name": "claim",
      "outputs": [],
      "stateMutability": "payable",
      "type": "function"
    },
    {
      "inputs": [],
      "name": "costToMint",
      "outputs": [
        {
          "internalType": "uint256",
          "name": "",
          "type": "uint256"
        }
      ],
      "stateMutability": "view",
      "type": "function"
    },
    {
      "inputs": [
        {
          "internalType": "uint256",
          "name": "tokenId",
          "type": "uint256"
        }
      ],
      "name": "getApproved",
      "outputs": [
        {
          "internalType": "address",
          "name": "",
          "type": "address"
        }
      ],
      "stateMutability": "view",
      "type": "function"
    },
    {
      "inputs": [
        {
          "internalType": "address",
          "name": "owner",
          "type": "address"
        },
        {
          "internalType": "address",
          "name": "operator",
          "type": "address"
        }
      ],
      "name": "isApprovedForAll",
      "outputs": [
        {
          "internalType": "bool",
          "name": "",
          "type": "bool"
        }
      ],
      "stateMutability": "view",
      "type": "function"
    },
    {
      "inputs": [],
      "name": "name",
      "outputs": [
        {
          "internalType": "string",
          "name": "",
          "type": "string"
        }
      ],
      "stateMutability": "view",
      "type": "function"
    },
    {
      "inputs": [],
      "name": "owner",
      "outputs": [
        {
          "internalType": "address",
          "name": "",
          "type": "address"
        }
      ],
      "stateMutability": "view",
      "type": "function"
    },
    {
      "inputs": [
        {
          "internalType": "address",
          "name": "_address",
          "type": "address"
        }
      ],
      "name": "ownerClaim",
      "outputs": [],
      "stateMutability": "nonpayable",
      "type": "function"
    },
    {
      "inputs": [
        {
          "internalType": "uint256",
          "name": "tokenId",
          "type": "uint256"
        }
      ],
      "name": "ownerOf",
      "outputs": [
        {
          "internalType": "address",
          "name": "",
          "type": "address"
        }
      ],
      "stateMutability": "view",
      "type": "function"
    },
    {
      "inputs": [],
      "name": "renounceOwnership",
      "outputs": [],
      "stateMutability": "nonpayable",
      "type": "function"
    },
    {
      "inputs": [
        {
          "internalType": "address",
          "name": "from",
          "type": "address"
        },
        {
          "internalType": "address",
          "name": "to",
          "type": "address"
        },
        {
          "internalType": "uint256",
          "name": "tokenId",
          "type": "uint256"
        }
      ],
      "name": "safeTransferFrom",
      "outputs": [],
      "stateMutability": "nonpayable",
      "type": "function"
    },
    {
      "inputs": [
        {
          "internalType": "address",
          "name": "from",
          "type": "address"
        },
        {
          "internalType": "address",
          "name": "to",
          "type": "address"
        },
        {
          "internalType": "uint256",
          "name": "tokenId",
          "type": "uint256"
        },
        {
          "internalType": "bytes",
          "name": "_data",
          "type": "bytes"
        }
      ],
      "name": "safeTransferFrom",
      "outputs": [],
      "stateMutability": "nonpayable",
      "type": "function"
    },
    {
      "inputs": [
        {
          "internalType": "address",
          "name": "operator",
          "type": "address"
        },
        {
          "internalType": "bool",
          "name": "approved",
          "type": "bool"
        }
      ],
      "name": "setApprovalForAll",
      "outputs": [],
      "stateMutability": "nonpayable",
      "type": "function"
    },
    {
      "inputs": [
        {
          "internalType": "uint256",
          "name": "_costToMint",
          "type": "uint256"
        }
      ],
      "name": "setCostToMint",
      "outputs": [],
      "stateMutability": "nonpayable",
      "type": "function"
    },
    {
      "inputs": [
        {
          "internalType": "uint256",
          "name": "_supply",
          "type": "uint256"
        }
      ],
      "name": "setSupply",
      "outputs": [],
      "stateMutability": "nonpayable",
      "type": "function"
    },
    {
      "inputs": [],
      "name": "supply",
      "outputs": [
        {
          "internalType": "uint256",
          "name": "",
          "type": "uint256"
        }
      ],
      "stateMutability": "view",
      "type": "function"
    },
    {
      "inputs": [
        {
          "internalType": "bytes4",
          "name": "interfaceId",
          "type": "bytes4"
        }
      ],
      "name": "supportsInterface",
      "outputs": [
        {
          "internalType": "bool",
          "name": "",
          "type": "bool"
        }
      ],
      "stateMutability": "view",
      "type": "function"
    },
    {
      "inputs": [],
      "name": "symbol",
      "outputs": [
        {
          "internalType": "string",
          "name": "",
          "type": "string"
        }
      ],
      "stateMutability": "view",
      "type": "function"
    },
    {
      "inputs": [
        {
          "internalType": "uint256",
          "name": "index",
          "type": "uint256"
        }
      ],
      "name": "tokenByIndex",
      "outputs": [
        {
          "internalType": "uint256",
          "name": "",
          "type": "uint256"
        }
      ],
      "stateMutability": "view",
      "type": "function"
    },
    {
      "inputs": [
        {
          "internalType": "address",
          "name": "owner",
          "type": "address"
        },
        {
          "internalType": "uint256",
          "name": "index",
          "type": "uint256"
        }
      ],
      "name": "tokenOfOwnerByIndex",
      "outputs": [
        {
          "internalType": "uint256",
          "name": "",
          "type": "uint256"
        }
      ],
      "stateMutability": "view",
      "type": "function"
    },
    {
      "inputs": [
        {
          "internalType": "uint256",
          "name": "tokenId",
          "type": "uint256"
        }
      ],
      "name": "tokenURI",
      "outputs": [
        {
          "internalType": "string",
          "name": "",
          "type": "string"
        }
      ],
      "stateMutability": "pure",
      "type": "function"
    },
    {
      "inputs": [],
      "name": "totalSupply",
      "outputs": [
        {
          "internalType": "uint256",
          "name": "",
          "type": "uint256"
        }
      ],
      "stateMutability": "view",
      "type": "function"
    },
    {
      "inputs": [
        {
          "internalType": "address",
          "name": "from",
          "type": "address"
        },
        {
          "internalType": "address",
          "name": "to",
          "type": "address"
        },
        {
          "internalType": "uint256",
          "name": "tokenId",
          "type": "uint256"
        }
      ],
      "name": "transferFrom",
      "outputs": [],
      "stateMutability": "nonpayable",
      "type": "function"
    },
    {
      "inputs": [
        {
          "internalType": "address",
          "name": "newOwner",
          "type": "address"
        }
      ],
      "name": "transferOwnership",
      "outputs": [],
      "stateMutability": "nonpayable",
      "type": "function"
    },
    {
      "inputs": [],
      "name": "withdraw",
      "outputs": [],
      "stateMutability": "nonpayable",
      "type": "function"
    }
  ],
  "bytecode": "0x60806040526001600c55662386f26fc10000600d556103e9600e553480156200002757600080fd5b506040518060400160405280600981526020017f5377616750616e646100000000000000000000000000000000000000000000008152506040518060400160405280600981526020017f5377616750616e646100000000000000000000000000000000000000000000008152508160009080519060200190620000ac92919062000de4565b508060019080519060200190620000c592919062000de4565b5050506001600a81905550620000f0620000e46200013660201b60201c565b6200013e60201b60201c565b62000110620001046200020460201b60201c565b6200022e60201b60201c565b62000130620001246200020460201b60201c565b6200022e60201b60201c565b6200156a565b600033905090565b6000600b60009054906101000a900473ffffffffffffffffffffffffffffffffffffffff16905081600b60006101000a81548173ffffffffffffffffffffffffffffffffffffffff021916908373ffffffffffffffffffffffffffffffffffffffff1602179055508173ffffffffffffffffffffffffffffffffffffffff168173ffffffffffffffffffffffffffffffffffffffff167f8be0079c531659141344cd1fd0a4f28419497f9722a3daafe3b4186f6b6457e060405160405180910390a35050565b6000600b60009054906101000a900473ffffffffffffffffffffffffffffffffffffffff16905090565b6002600a54141562000277576040517f08c379a00000000000000000000000000000000000000000000000000000000081526004016200026e906200116b565b60405180910390fd5b6002600a819055506200028f6200013660201b60201c565b73ffffffffffffffffffffffffffffffffffffffff16620002b56200020460201b60201c565b73ffffffffffffffffffffffffffffffffffffffff16146200030e576040517f08c379a0000000000000000000000000000000000000000000000000000000008152600401620003059062001127565b60405180910390fd5b600e54600c541062000357576040517f08c379a00000000000000000000000000000000000000000000000000000000081526004016200034e9062001149565b60405180910390fd5b6200036b81600c546200039060201b60201c565b600c6000815480929190620003809062001328565b91905055506001600a8190555050565b620003b2828260405180602001604052806000815250620003b660201b60201c565b5050565b620003c883836200042460201b60201c565b620003dd60008484846200060a60201b60201c565b6200041f576040517f08c379a000000000000000000000000000000000000000000000000000000000815260040162000416906200109f565b60405180910390fd5b505050565b600073ffffffffffffffffffffffffffffffffffffffff168273ffffffffffffffffffffffffffffffffffffffff16141562000497576040517f08c379a00000000000000000000000000000000000000000000000000000000081526004016200048e9062001105565b60405180910390fd5b620004a881620007c460201b60201c565b15620004eb576040517f08c379a0000000000000000000000000000000000000000000000000000000008152600401620004e290620010c1565b60405180910390fd5b620004ff600083836200083060201b60201c565b6001600360008473ffffffffffffffffffffffffffffffffffffffff1673ffffffffffffffffffffffffffffffffffffffff1681526020019081526020016000206000828254620005519190620011ba565b92505081905550816002600083815260200190815260200160002060006101000a81548173ffffffffffffffffffffffffffffffffffffffff021916908373ffffffffffffffffffffffffffffffffffffffff160217905550808273ffffffffffffffffffffffffffffffffffffffff16600073ffffffffffffffffffffffffffffffffffffffff167fddf252ad1be2c89b69c2b068fc378daa952ba7f163c4a11628f55a4df523b3ef60405160405180910390a45050565b6000620006388473ffffffffffffffffffffffffffffffffffffffff166200097760201b620015561760201c565b15620007b7578373ffffffffffffffffffffffffffffffffffffffff1663150b7a026200066a6200013660201b60201c565b8786866040518563ffffffff1660e01b81526004016200068e94939291906200104b565b602060405180830381600087803b158015620006a957600080fd5b505af1925050508015620006dd57506040513d601f19601f82011682018060405250810190620006da919062000eab565b60015b62000766573d806000811462000710576040519150601f19603f3d011682016040523d82523d6000602084013e62000715565b606091505b506000815114156200075e576040517f08c379a000000000000000000000000000000000000000000000000000000000815260040162000755906200109f565b60405180910390fd5b805181602001fd5b63150b7a0260e01b7bffffffffffffffffffffffffffffffffffffffffffffffffffffffff1916817bffffffffffffffffffffffffffffffffffffffffffffffffffffffff191614915050620007bc565b600190505b949350505050565b60008073ffffffffffffffffffffffffffffffffffffffff166002600084815260200190815260200160002060009054906101000a900473ffffffffffffffffffffffffffffffffffffffff1673ffffffffffffffffffffffffffffffffffffffff1614159050919050565b620008488383836200098a60201b620015691760201c565b600073ffffffffffffffffffffffffffffffffffffffff168373ffffffffffffffffffffffffffffffffffffffff16141562000895576200088f816200098f60201b60201c565b620008dd565b8173ffffffffffffffffffffffffffffffffffffffff168373ffffffffffffffffffffffffffffffffffffffff1614620008dc57620008db8382620009d860201b60201c565b5b5b600073ffffffffffffffffffffffffffffffffffffffff168273ffffffffffffffffffffffffffffffffffffffff1614156200092a57620009248162000b5560201b60201c565b62000972565b8273ffffffffffffffffffffffffffffffffffffffff168273ffffffffffffffffffffffffffffffffffffffff1614620009715762000970828262000c9d60201b60201c565b5b5b505050565b600080823b905060008111915050919050565b505050565b6008805490506009600083815260200190815260200160002081905550600881908060018154018082558091505060019003906000526020600020016000909190919091505550565b60006001620009f28462000d2960201b62000fae1760201c565b620009fe919062001217565b905060006007600084815260200190815260200160002054905081811462000ae4576000600660008673ffffffffffffffffffffffffffffffffffffffff1673ffffffffffffffffffffffffffffffffffffffff168152602001908152602001600020600084815260200190815260200160002054905080600660008773ffffffffffffffffffffffffffffffffffffffff1673ffffffffffffffffffffffffffffffffffffffff168152602001908152602001600020600084815260200190815260200160002081905550816007600083815260200190815260200160002081905550505b6007600084815260200190815260200160002060009055600660008573ffffffffffffffffffffffffffffffffffffffff1673ffffffffffffffffffffffffffffffffffffffff16815260200190815260200160002060008381526020019081526020016000206000905550505050565b6000600160088054905062000b6b919062001217565b905060006009600084815260200190815260200160002054905060006008838154811062000bc2577f4e487b7100000000000000000000000000000000000000000000000000000000600052603260045260246000fd5b90600052602060002001549050806008838154811062000c0b577f4e487b7100000000000000000000000000000000000000000000000000000000600052603260045260246000fd5b90600052602060002001819055508160096000838152602001908152602001600020819055506009600085815260200190815260200160002060009055600880548062000c81577f4e487b7100000000000000000000000000000000000000000000000000000000600052603160045260246000fd5b6001900381819060005260206000200160009055905550505050565b600062000cb58362000d2960201b62000fae1760201c565b905081600660008573ffffffffffffffffffffffffffffffffffffffff1673ffffffffffffffffffffffffffffffffffffffff168152602001908152602001600020600083815260200190815260200160002081905550806007600084815260200190815260200160002081905550505050565b60008073ffffffffffffffffffffffffffffffffffffffff168273ffffffffffffffffffffffffffffffffffffffff16141562000d9d576040517f08c379a000000000000000000000000000000000000000000000000000000000815260040162000d9490620010e3565b60405180910390fd5b600360008373ffffffffffffffffffffffffffffffffffffffff1673ffffffffffffffffffffffffffffffffffffffff168152602001908152602001600020549050919050565b82805462000df290620012f2565b90600052602060002090601f01602090048101928262000e16576000855562000e62565b82601f1062000e3157805160ff191683800117855562000e62565b8280016001018555821562000e62579182015b8281111562000e6157825182559160200191906001019062000e44565b5b50905062000e71919062000e75565b5090565b5b8082111562000e9057600081600090555060010162000e76565b5090565b60008151905062000ea58162001550565b92915050565b60006020828403121562000ebe57600080fd5b600062000ece8482850162000e94565b91505092915050565b62000ee28162001252565b82525050565b600062000ef5826200118d565b62000f01818562001198565b935062000f13818560208601620012bc565b62000f1e81620013d4565b840191505092915050565b600062000f38603283620011a9565b915062000f4582620013e5565b604082019050919050565b600062000f5f601c83620011a9565b915062000f6c8262001434565b602082019050919050565b600062000f86602a83620011a9565b915062000f93826200145d565b604082019050919050565b600062000fad602083620011a9565b915062000fba82620014ac565b602082019050919050565b600062000fd4602083620011a9565b915062000fe182620014d5565b602082019050919050565b600062000ffb600d83620011a9565b91506200100882620014fe565b602082019050919050565b600062001022601f83620011a9565b91506200102f8262001527565b602082019050919050565b6200104581620012b2565b82525050565b600060808201905062001062600083018762000ed7565b62001071602083018662000ed7565b6200108060408301856200103a565b818103606083015262001094818462000ee8565b905095945050505050565b60006020820190508181036000830152620010ba8162000f29565b9050919050565b60006020820190508181036000830152620010dc8162000f50565b9050919050565b60006020820190508181036000830152620010fe8162000f77565b9050919050565b60006020820190508181036000830152620011208162000f9e565b9050919050565b60006020820190508181036000830152620011428162000fc5565b9050919050565b60006020820190508181036000830152620011648162000fec565b9050919050565b60006020820190508181036000830152620011868162001013565b9050919050565b600081519050919050565b600082825260208201905092915050565b600082825260208201905092915050565b6000620011c782620012b2565b9150620011d483620012b2565b9250827fffffffffffffffffffffffffffffffffffffffffffffffffffffffffffffffff038211156200120c576200120b62001376565b5b828201905092915050565b60006200122482620012b2565b91506200123183620012b2565b92508282101562001247576200124662001376565b5b828203905092915050565b60006200125f8262001292565b9050919050565b60007fffffffff0000000000000000000000000000000000000000000000000000000082169050919050565b600073ffffffffffffffffffffffffffffffffffffffff82169050919050565b6000819050919050565b60005b83811015620012dc578082015181840152602081019050620012bf565b83811115620012ec576000848401525b50505050565b600060028204905060018216806200130b57607f821691505b60208210811415620013225762001321620013a5565b5b50919050565b60006200133582620012b2565b91507fffffffffffffffffffffffffffffffffffffffffffffffffffffffffffffffff8214156200136b576200136a62001376565b5b600182019050919050565b7f4e487b7100000000000000000000000000000000000000000000000000000000600052601160045260246000fd5b7f4e487b7100000000000000000000000000000000000000000000000000000000600052602260045260246000fd5b6000601f19601f8301169050919050565b7f4552433732313a207472616e7366657220746f206e6f6e20455243373231526560008201527f63656976657220696d706c656d656e7465720000000000000000000000000000602082015250565b7f4552433732313a20746f6b656e20616c7265616479206d696e74656400000000600082015250565b7f4552433732313a2062616c616e636520717565727920666f7220746865207a6560008201527f726f206164647265737300000000000000000000000000000000000000000000602082015250565b7f4552433732313a206d696e7420746f20746865207a65726f2061646472657373600082015250565b7f4f776e61626c653a2063616c6c6572206973206e6f7420746865206f776e6572600082015250565b7f4f7574206f6620746f6b656e7300000000000000000000000000000000000000600082015250565b7f5265656e7472616e637947756172643a207265656e7472616e742063616c6c00600082015250565b6200155b8162001266565b81146200156757600080fd5b50565b613a6b806200157a6000396000f3fe60806040526004361061019c5760003560e01c80634f6ccce7116100ec578063a22cb4651161008a578063c963483c11610064578063c963483c146105a3578063e985e9c5146105ce578063ecbeefec1461060b578063f2fde38b146106365761019c565b8063a22cb46514610514578063b88d4fde1461053d578063c87b56dd146105665761019c565b806370a08231116100c657806370a082311461046a578063715018a6146104a75780638da5cb5b146104be57806395d89b41146104e95761019c565b80634f6ccce7146103c75780636000fbcc146104045780636352211e1461042d5761019c565b806323b872dd116101595780633b4c4b25116101335780633b4c4b25146103545780633ccfd60b1461037d57806342842e0e146103945780634e71d92d146103bd5761019c565b806323b872dd146102c55780632f745c59146102ee57806336d044331461032b5761019c565b806301ffc9a7146101a1578063047fc9aa146101de57806306fdde0314610209578063081812fc14610234578063095ea7b31461027157806318160ddd1461029a575b600080fd5b3480156101ad57600080fd5b506101c860048036038101906101c391906128d2565b61065f565b6040516101d59190612db3565b60405180910390f35b3480156101ea57600080fd5b506101f36106d9565b6040516102009190613070565b60405180910390f35b34801561021557600080fd5b5061021e6106df565b60405161022b9190612dce565b60405180910390f35b34801561024057600080fd5b5061025b60048036038101906102569190612924565b610771565b6040516102689190612d4c565b60405180910390f35b34801561027d57600080fd5b5061029860048036038101906102939190612896565b6107f6565b005b3480156102a657600080fd5b506102af61090e565b6040516102bc9190613070565b60405180910390f35b3480156102d157600080fd5b506102ec60048036038101906102e79190612790565b61091b565b005b3480156102fa57600080fd5b5061031560048036038101906103109190612896565b61097b565b6040516103229190613070565b60405180910390f35b34801561033757600080fd5b50610352600480360381019061034d919061272b565b610a20565b005b34801561036057600080fd5b5061037b60048036038101906103769190612924565b610b5f565b005b34801561038957600080fd5b50610392610be5565b005b3480156103a057600080fd5b506103bb60048036038101906103b69190612790565b610cb1565b005b6103c5610cd1565b005b3480156103d357600080fd5b506103ee60048036038101906103e99190612924565b610ddf565b6040516103fb9190613070565b60405180910390f35b34801561041057600080fd5b5061042b60048036038101906104269190612924565b610e76565b005b34801561043957600080fd5b50610454600480360381019061044f9190612924565b610efc565b6040516104619190612d4c565b60405180910390f35b34801561047657600080fd5b50610491600480360381019061048c919061272b565b610fae565b60405161049e9190613070565b60405180910390f35b3480156104b357600080fd5b506104bc611066565b005b3480156104ca57600080fd5b506104d36110ee565b6040516104e09190612d4c565b60405180910390f35b3480156104f557600080fd5b506104fe611118565b60405161050b9190612dce565b60405180910390f35b34801561052057600080fd5b5061053b6004803603810190610536919061285a565b6111aa565b005b34801561054957600080fd5b50610564600480360381019061055f91906127df565b61132b565b005b34801561057257600080fd5b5061058d60048036038101906105889190612924565b61138d565b60405161059a9190612dce565b60405180910390f35b3480156105af57600080fd5b506105b86113be565b6040516105c59190613070565b60405180910390f35b3480156105da57600080fd5b506105f560048036038101906105f09190612754565b6113c4565b6040516106029190612db3565b60405180910390f35b34801561061757600080fd5b50610620611458565b60405161062d9190613070565b60405180910390f35b34801561064257600080fd5b5061065d6004803603810190610658919061272b565b61145e565b005b60007f780e9d63000000000000000000000000000000000000000000000000000000007bffffffffffffffffffffffffffffffffffffffffffffffffffffffff1916827bffffffffffffffffffffffffffffffffffffffffffffffffffffffff191614806106d257506106d18261156e565b5b9050919050565b600e5481565b6060600080546106ee90613295565b80601f016020809104026020016040519081016040528092919081815260200182805461071a90613295565b80156107675780601f1061073c57610100808354040283529160200191610767565b820191906000526020600020905b81548152906001019060200180831161074a57829003601f168201915b5050505050905090565b600061077c82611650565b6107bb576040517f08c379a00000000000000000000000000000000000000000000000000000000081526004016107b290612f50565b60405180910390fd5b6004600083815260200190815260200160002060009054906101000a900473ffffffffffffffffffffffffffffffffffffffff169050919050565b600061080182610efc565b90508073ffffffffffffffffffffffffffffffffffffffff168373ffffffffffffffffffffffffffffffffffffffff161415610872576040517f08c379a000000000000000000000000000000000000000000000000000000000815260040161086990612fb0565b60405180910390fd5b8073ffffffffffffffffffffffffffffffffffffffff166108916116bc565b73ffffffffffffffffffffffffffffffffffffffff1614806108c057506108bf816108ba6116bc565b6113c4565b5b6108ff576040517f08c379a00000000000000000000000000000000000000000000000000000000081526004016108f690612ed0565b60405180910390fd5b61090983836116c4565b505050565b6000600880549050905090565b61092c6109266116bc565b8261177d565b61096b576040517f08c379a000000000000000000000000000000000000000000000000000000000815260040161096290612ff0565b60405180910390fd5b61097683838361185b565b505050565b600061098683610fae565b82106109c7576040517f08c379a00000000000000000000000000000000000000000000000000000000081526004016109be90612df0565b60405180910390fd5b600660008473ffffffffffffffffffffffffffffffffffffffff1673ffffffffffffffffffffffffffffffffffffffff168152602001908152602001600020600083815260200190815260200160002054905092915050565b6002600a541415610a66576040517f08c379a0000000000000000000000000000000000000000000000000000000008152600401610a5d90613050565b60405180910390fd5b6002600a81905550610a766116bc565b73ffffffffffffffffffffffffffffffffffffffff16610a946110ee565b73ffffffffffffffffffffffffffffffffffffffff1614610aea576040517f08c379a0000000000000000000000000000000000000000000000000000000008152600401610ae190612f70565b60405180910390fd5b600e54600c5410610b30576040517f08c379a0000000000000000000000000000000000000000000000000000000008152600401610b2790613010565b60405180910390fd5b610b3c81600c54611ab7565b600c6000815480929190610b4f906132f8565b91905055506001600a8190555050565b610b676116bc565b73ffffffffffffffffffffffffffffffffffffffff16610b856110ee565b73ffffffffffffffffffffffffffffffffffffffff1614610bdb576040517f08c379a0000000000000000000000000000000000000000000000000000000008152600401610bd290612f70565b60405180910390fd5b80600e8190555050565b610bed6116bc565b73ffffffffffffffffffffffffffffffffffffffff16610c0b6110ee565b73ffffffffffffffffffffffffffffffffffffffff1614610c61576040517f08c379a0000000000000000000000000000000000000000000000000000000008152600401610c5890612f70565b60405180910390fd5b610c696110ee565b73ffffffffffffffffffffffffffffffffffffffff166108fc479081150290604051600060405180830381858888f19350505050158015610cae573d6000803e3d6000fd5b50565b610ccc8383836040518060200160405280600081525061132b565b505050565b6002600a541415610d17576040517f08c379a0000000000000000000000000000000000000000000000000000000008152600401610d0e90613050565b60405180910390fd5b6002600a81905550600e54600c5410610d65576040517f08c379a0000000000000000000000000000000000000000000000000000000008152600401610d5c90613010565b60405180910390fd5b600d54341015610daa576040517f08c379a0000000000000000000000000000000000000000000000000000000008152600401610da190612fd0565b60405180910390fd5b610dbd610db56116bc565b600c54611ab7565b600c6000815480929190610dd0906132f8565b91905055506001600a81905550565b6000610de961090e565b8210610e2a576040517f08c379a0000000000000000000000000000000000000000000000000000000008152600401610e2190613030565b60405180910390fd5b60088281548110610e64577f4e487b7100000000000000000000000000000000000000000000000000000000600052603260045260246000fd5b90600052602060002001549050919050565b610e7e6116bc565b73ffffffffffffffffffffffffffffffffffffffff16610e9c6110ee565b73ffffffffffffffffffffffffffffffffffffffff1614610ef2576040517f08c379a0000000000000000000000000000000000000000000000000000000008152600401610ee990612f70565b60405180910390fd5b80600d8190555050565b6000806002600084815260200190815260200160002060009054906101000a900473ffffffffffffffffffffffffffffffffffffffff169050600073ffffffffffffffffffffffffffffffffffffffff168173ffffffffffffffffffffffffffffffffffffffff161415610fa5576040517f08c379a0000000000000000000000000000000000000000000000000000000008152600401610f9c90612f10565b60405180910390fd5b80915050919050565b60008073ffffffffffffffffffffffffffffffffffffffff168273ffffffffffffffffffffffffffffffffffffffff16141561101f576040517f08c379a000000000000000000000000000000000000000000000000000000000815260040161101690612ef0565b60405180910390fd5b600360008373ffffffffffffffffffffffffffffffffffffffff1673ffffffffffffffffffffffffffffffffffffffff168152602001908152602001600020549050919050565b61106e6116bc565b73ffffffffffffffffffffffffffffffffffffffff1661108c6110ee565b73ffffffffffffffffffffffffffffffffffffffff16146110e2576040517f08c379a00000000000000000000000000000000000000000000000000000000081526004016110d990612f70565b60405180910390fd5b6110ec6000611ad5565b565b6000600b60009054906101000a900473ffffffffffffffffffffffffffffffffffffffff16905090565b60606001805461112790613295565b80601f016020809104026020016040519081016040528092919081815260200182805461115390613295565b80156111a05780601f10611175576101008083540402835291602001916111a0565b820191906000526020600020905b81548152906001019060200180831161118357829003601f168201915b5050505050905090565b6111b26116bc565b73ffffffffffffffffffffffffffffffffffffffff168273ffffffffffffffffffffffffffffffffffffffff161415611220576040517f08c379a000000000000000000000000000000000000000000000000000000000815260040161121790612e90565b60405180910390fd5b806005600061122d6116bc565b73ffffffffffffffffffffffffffffffffffffffff1673ffffffffffffffffffffffffffffffffffffffff16815260200190815260200160002060008473ffffffffffffffffffffffffffffffffffffffff1673ffffffffffffffffffffffffffffffffffffffff16815260200190815260200160002060006101000a81548160ff0219169083151502179055508173ffffffffffffffffffffffffffffffffffffffff166112da6116bc565b73ffffffffffffffffffffffffffffffffffffffff167f17307eab39ab6107e8899845ad3d59bd9653f200f220920489ca2b5937696c318360405161131f9190612db3565b60405180910390a35050565b61133c6113366116bc565b8361177d565b61137b576040517f08c379a000000000000000000000000000000000000000000000000000000000815260040161137290612ff0565b60405180910390fd5b61138784848484611b9b565b50505050565b606061139882611bf7565b6040516020016113a89190612d1f565b6040516020818303038152906040529050919050565b600c5481565b6000600560008473ffffffffffffffffffffffffffffffffffffffff1673ffffffffffffffffffffffffffffffffffffffff16815260200190815260200160002060008373ffffffffffffffffffffffffffffffffffffffff1673ffffffffffffffffffffffffffffffffffffffff16815260200190815260200160002060009054906101000a900460ff16905092915050565b600d5481565b6114666116bc565b73ffffffffffffffffffffffffffffffffffffffff166114846110ee565b73ffffffffffffffffffffffffffffffffffffffff16146114da576040517f08c379a00000000000000000000000000000000000000000000000000000000081526004016114d190612f70565b60405180910390fd5b600073ffffffffffffffffffffffffffffffffffffffff168173ffffffffffffffffffffffffffffffffffffffff16141561154a576040517f08c379a000000000000000000000000000000000000000000000000000000000815260040161154190612e30565b60405180910390fd5b61155381611ad5565b50565b600080823b905060008111915050919050565b505050565b60007f80ac58cd000000000000000000000000000000000000000000000000000000007bffffffffffffffffffffffffffffffffffffffffffffffffffffffff1916827bffffffffffffffffffffffffffffffffffffffffffffffffffffffff1916148061163957507f5b5e139f000000000000000000000000000000000000000000000000000000007bffffffffffffffffffffffffffffffffffffffffffffffffffffffff1916827bffffffffffffffffffffffffffffffffffffffffffffffffffffffff1916145b80611649575061164882611da4565b5b9050919050565b60008073ffffffffffffffffffffffffffffffffffffffff166002600084815260200190815260200160002060009054906101000a900473ffffffffffffffffffffffffffffffffffffffff1673ffffffffffffffffffffffffffffffffffffffff1614159050919050565b600033905090565b816004600083815260200190815260200160002060006101000a81548173ffffffffffffffffffffffffffffffffffffffff021916908373ffffffffffffffffffffffffffffffffffffffff160217905550808273ffffffffffffffffffffffffffffffffffffffff1661173783610efc565b73ffffffffffffffffffffffffffffffffffffffff167f8c5be1e5ebec7d5bd14f71427d1e84f3dd0314c0f7b2291e5b200ac8c7c3b92560405160405180910390a45050565b600061178882611650565b6117c7576040517f08c379a00000000000000000000000000000000000000000000000000000000081526004016117be90612eb0565b60405180910390fd5b60006117d283610efc565b90508073ffffffffffffffffffffffffffffffffffffffff168473ffffffffffffffffffffffffffffffffffffffff16148061184157508373ffffffffffffffffffffffffffffffffffffffff1661182984610771565b73ffffffffffffffffffffffffffffffffffffffff16145b80611852575061185181856113c4565b5b91505092915050565b8273ffffffffffffffffffffffffffffffffffffffff1661187b82610efc565b73ffffffffffffffffffffffffffffffffffffffff16146118d1576040517f08c379a00000000000000000000000000000000000000000000000000000000081526004016118c890612f90565b60405180910390fd5b600073ffffffffffffffffffffffffffffffffffffffff168273ffffffffffffffffffffffffffffffffffffffff161415611941576040517f08c379a000000000000000000000000000000000000000000000000000000000815260040161193890612e70565b60405180910390fd5b61194c838383611e0e565b6119576000826116c4565b6001600360008573ffffffffffffffffffffffffffffffffffffffff1673ffffffffffffffffffffffffffffffffffffffff16815260200190815260200160002060008282546119a791906131ab565b925050819055506001600360008473ffffffffffffffffffffffffffffffffffffffff1673ffffffffffffffffffffffffffffffffffffffff16815260200190815260200160002060008282546119fe9190613124565b92505081905550816002600083815260200190815260200160002060006101000a81548173ffffffffffffffffffffffffffffffffffffffff021916908373ffffffffffffffffffffffffffffffffffffffff160217905550808273ffffffffffffffffffffffffffffffffffffffff168473ffffffffffffffffffffffffffffffffffffffff167fddf252ad1be2c89b69c2b068fc378daa952ba7f163c4a11628f55a4df523b3ef60405160405180910390a4505050565b611ad1828260405180602001604052806000815250611f22565b5050565b6000600b60009054906101000a900473ffffffffffffffffffffffffffffffffffffffff16905081600b60006101000a81548173ffffffffffffffffffffffffffffffffffffffff021916908373ffffffffffffffffffffffffffffffffffffffff1602179055508173ffffffffffffffffffffffffffffffffffffffff168173ffffffffffffffffffffffffffffffffffffffff167f8be0079c531659141344cd1fd0a4f28419497f9722a3daafe3b4186f6b6457e060405160405180910390a35050565b611ba684848461185b565b611bb284848484611f7d565b611bf1576040517f08c379a0000000000000000000000000000000000000000000000000000000008152600401611be890612e10565b60405180910390fd5b50505050565b60606000821415611c3f576040518060400160405280600181526020017f30000000000000000000000000000000000000000000000000000000000000008152509050611d9f565b600082905060005b60008214611c71578080611c5a906132f8565b915050600a82611c6a919061317a565b9150611c47565b60008167ffffffffffffffff811115611cb3577f4e487b7100000000000000000000000000000000000000000000000000000000600052604160045260246000fd5b6040519080825280601f01601f191660200182016040528015611ce55781602001600182028036833780820191505090505b5090505b60008514611d9857600182611cfe91906131ab565b9150600a85611d0d9190613341565b6030611d199190613124565b60f81b818381518110611d55577f4e487b7100000000000000000000000000000000000000000000000000000000600052603260045260246000fd5b60200101907effffffffffffffffffffffffffffffffffffffffffffffffffffffffffffff1916908160001a905350600a85611d91919061317a565b9450611ce9565b8093505050505b919050565b60007f01ffc9a7000000000000000000000000000000000000000000000000000000007bffffffffffffffffffffffffffffffffffffffffffffffffffffffff1916827bffffffffffffffffffffffffffffffffffffffffffffffffffffffff1916149050919050565b611e19838383611569565b600073ffffffffffffffffffffffffffffffffffffffff168373ffffffffffffffffffffffffffffffffffffffff161415611e5c57611e5781612114565b611e9b565b8173ffffffffffffffffffffffffffffffffffffffff168373ffffffffffffffffffffffffffffffffffffffff1614611e9a57611e99838261215d565b5b5b600073ffffffffffffffffffffffffffffffffffffffff168273ffffffffffffffffffffffffffffffffffffffff161415611ede57611ed9816122ca565b611f1d565b8273ffffffffffffffffffffffffffffffffffffffff168273ffffffffffffffffffffffffffffffffffffffff1614611f1c57611f1b828261240d565b5b5b505050565b611f2c838361248c565b611f396000848484611f7d565b611f78576040517f08c379a0000000000000000000000000000000000000000000000000000000008152600401611f6f90612e10565b60405180910390fd5b505050565b6000611f9e8473ffffffffffffffffffffffffffffffffffffffff16611556565b15612107578373ffffffffffffffffffffffffffffffffffffffff1663150b7a02611fc76116bc565b8786866040518563ffffffff1660e01b8152600401611fe99493929190612d67565b602060405180830381600087803b15801561200357600080fd5b505af192505050801561203457506040513d601f19601f8201168201806040525081019061203191906128fb565b60015b6120b7573d8060008114612064576040519150601f19603f3d011682016040523d82523d6000602084013e612069565b606091505b506000815114156120af576040517f08c379a00000000000000000000000000000000000000000000000000000000081526004016120a690612e10565b60405180910390fd5b805181602001fd5b63150b7a0260e01b7bffffffffffffffffffffffffffffffffffffffffffffffffffffffff1916817bffffffffffffffffffffffffffffffffffffffffffffffffffffffff19161491505061210c565b600190505b949350505050565b6008805490506009600083815260200190815260200160002081905550600881908060018154018082558091505060019003906000526020600020016000909190919091505550565b6000600161216a84610fae565b61217491906131ab565b9050600060076000848152602001908152602001600020549050818114612259576000600660008673ffffffffffffffffffffffffffffffffffffffff1673ffffffffffffffffffffffffffffffffffffffff168152602001908152602001600020600084815260200190815260200160002054905080600660008773ffffffffffffffffffffffffffffffffffffffff1673ffffffffffffffffffffffffffffffffffffffff168152602001908152602001600020600084815260200190815260200160002081905550816007600083815260200190815260200160002081905550505b6007600084815260200190815260200160002060009055600660008573ffffffffffffffffffffffffffffffffffffffff1673ffffffffffffffffffffffffffffffffffffffff16815260200190815260200160002060008381526020019081526020016000206000905550505050565b600060016008805490506122de91906131ab565b9050600060096000848152602001908152602001600020549050600060088381548110612334577f4e487b7100000000000000000000000000000000000000000000000000000000600052603260045260246000fd5b90600052602060002001549050806008838154811061237c577f4e487b7100000000000000000000000000000000000000000000000000000000600052603260045260246000fd5b9060005260206000200181905550816009600083815260200190815260200160002081905550600960008581526020019081526020016000206000905560088054806123f1577f4e487b7100000000000000000000000000000000000000000000000000000000600052603160045260246000fd5b6001900381819060005260206000200160009055905550505050565b600061241883610fae565b905081600660008573ffffffffffffffffffffffffffffffffffffffff1673ffffffffffffffffffffffffffffffffffffffff168152602001908152602001600020600083815260200190815260200160002081905550806007600084815260200190815260200160002081905550505050565b600073ffffffffffffffffffffffffffffffffffffffff168273ffffffffffffffffffffffffffffffffffffffff1614156124fc576040517f08c379a00000000000000000000000000000000000000000000000000000000081526004016124f390612f30565b60405180910390fd5b61250581611650565b15612545576040517f08c379a000000000000000000000000000000000000000000000000000000000815260040161253c90612e50565b60405180910390fd5b61255160008383611e0e565b6001600360008473ffffffffffffffffffffffffffffffffffffffff1673ffffffffffffffffffffffffffffffffffffffff16815260200190815260200160002060008282546125a19190613124565b92505081905550816002600083815260200190815260200160002060006101000a81548173ffffffffffffffffffffffffffffffffffffffff021916908373ffffffffffffffffffffffffffffffffffffffff160217905550808273ffffffffffffffffffffffffffffffffffffffff16600073ffffffffffffffffffffffffffffffffffffffff167fddf252ad1be2c89b69c2b068fc378daa952ba7f163c4a11628f55a4df523b3ef60405160405180910390a45050565b600061266d612668846130b0565b61308b565b90508281526020810184848401111561268557600080fd5b612690848285613253565b509392505050565b6000813590506126a7816139d9565b92915050565b6000813590506126bc816139f0565b92915050565b6000813590506126d181613a07565b92915050565b6000815190506126e681613a07565b92915050565b600082601f8301126126fd57600080fd5b813561270d84826020860161265a565b91505092915050565b60008135905061272581613a1e565b92915050565b60006020828403121561273d57600080fd5b600061274b84828501612698565b91505092915050565b6000806040838503121561276757600080fd5b600061277585828601612698565b925050602061278685828601612698565b9150509250929050565b6000806000606084860312156127a557600080fd5b60006127b386828701612698565b93505060206127c486828701612698565b92505060406127d586828701612716565b9150509250925092565b600080600080608085870312156127f557600080fd5b600061280387828801612698565b945050602061281487828801612698565b935050604061282587828801612716565b925050606085013567ffffffffffffffff81111561284257600080fd5b61284e878288016126ec565b91505092959194509250565b6000806040838503121561286d57600080fd5b600061287b85828601612698565b925050602061288c858286016126ad565b9150509250929050565b600080604083850312156128a957600080fd5b60006128b785828601612698565b92505060206128c885828601612716565b9150509250929050565b6000602082840312156128e457600080fd5b60006128f2848285016126c2565b91505092915050565b60006020828403121561290d57600080fd5b600061291b848285016126d7565b91505092915050565b60006020828403121561293657600080fd5b600061294484828501612716565b91505092915050565b612956816131df565b82525050565b612965816131f1565b82525050565b6000612976826130e1565b61298081856130f7565b9350612990818560208601613262565b6129998161342e565b840191505092915050565b60006129af826130ec565b6129b98185613108565b93506129c9818560208601613262565b6129d28161342e565b840191505092915050565b60006129e8826130ec565b6129f28185613119565b9350612a02818560208601613262565b80840191505092915050565b6000612a1b602b83613108565b9150612a268261343f565b604082019050919050565b6000612a3e603283613108565b9150612a498261348e565b604082019050919050565b6000612a61602683613108565b9150612a6c826134dd565b604082019050919050565b6000612a84601c83613108565b9150612a8f8261352c565b602082019050919050565b6000612aa7602483613108565b9150612ab282613555565b604082019050919050565b6000612aca601983613108565b9150612ad5826135a4565b602082019050919050565b6000612aed602883613119565b9150612af8826135cd565b602882019050919050565b6000612b10602c83613108565b9150612b1b8261361c565b604082019050919050565b6000612b33603883613108565b9150612b3e8261366b565b604082019050919050565b6000612b56602a83613108565b9150612b61826136ba565b604082019050919050565b6000612b79602983613108565b9150612b8482613709565b604082019050919050565b6000612b9c602083613108565b9150612ba782613758565b602082019050919050565b6000612bbf602c83613108565b9150612bca82613781565b604082019050919050565b6000612be2600583613119565b9150612bed826137d0565b600582019050919050565b6000612c05602083613108565b9150612c10826137f9565b602082019050919050565b6000612c28602983613108565b9150612c3382613822565b604082019050919050565b6000612c4b602183613108565b9150612c5682613871565b604082019050919050565b6000612c6e601483613108565b9150612c79826138c0565b602082019050919050565b6000612c91603183613108565b9150612c9c826138e9565b604082019050919050565b6000612cb4600d83613108565b9150612cbf82613938565b602082019050919050565b6000612cd7602c83613108565b9150612ce282613961565b604082019050919050565b6000612cfa601f83613108565b9150612d05826139b0565b602082019050919050565b612d1981613249565b82525050565b6000612d2a82612ae0565b9150612d3682846129dd565b9150612d4182612bd5565b915081905092915050565b6000602082019050612d61600083018461294d565b92915050565b6000608082019050612d7c600083018761294d565b612d89602083018661294d565b612d966040830185612d10565b8181036060830152612da8818461296b565b905095945050505050565b6000602082019050612dc8600083018461295c565b92915050565b60006020820190508181036000830152612de881846129a4565b905092915050565b60006020820190508181036000830152612e0981612a0e565b9050919050565b60006020820190508181036000830152612e2981612a31565b9050919050565b60006020820190508181036000830152612e4981612a54565b9050919050565b60006020820190508181036000830152612e6981612a77565b9050919050565b60006020820190508181036000830152612e8981612a9a565b9050919050565b60006020820190508181036000830152612ea981612abd565b9050919050565b60006020820190508181036000830152612ec981612b03565b9050919050565b60006020820190508181036000830152612ee981612b26565b9050919050565b60006020820190508181036000830152612f0981612b49565b9050919050565b60006020820190508181036000830152612f2981612b6c565b9050919050565b60006020820190508181036000830152612f4981612b8f565b9050919050565b60006020820190508181036000830152612f6981612bb2565b9050919050565b60006020820190508181036000830152612f8981612bf8565b9050919050565b60006020820190508181036000830152612fa981612c1b565b9050919050565b60006020820190508181036000830152612fc981612c3e565b9050919050565b60006020820190508181036000830152612fe981612c61565b9050919050565b6000602082019050818103600083015261300981612c84565b9050919050565b6000602082019050818103600083015261302981612ca7565b9050919050565b6000602082019050818103600083015261304981612cca565b9050919050565b6000602082019050818103600083015261306981612ced565b9050919050565b60006020820190506130856000830184612d10565b92915050565b60006130956130a6565b90506130a182826132c7565b919050565b6000604051905090565b600067ffffffffffffffff8211156130cb576130ca6133ff565b5b6130d48261342e565b9050602081019050919050565b600081519050919050565b600081519050919050565b600082825260208201905092915050565b600082825260208201905092915050565b600081905092915050565b600061312f82613249565b915061313a83613249565b9250827fffffffffffffffffffffffffffffffffffffffffffffffffffffffffffffffff0382111561316f5761316e613372565b5b828201905092915050565b600061318582613249565b915061319083613249565b9250826131a05761319f6133a1565b5b828204905092915050565b60006131b682613249565b91506131c183613249565b9250828210156131d4576131d3613372565b5b828203905092915050565b60006131ea82613229565b9050919050565b60008115159050919050565b60007fffffffff0000000000000000000000000000000000000000000000000000000082169050919050565b600073ffffffffffffffffffffffffffffffffffffffff82169050919050565b6000819050919050565b82818337600083830152505050565b60005b83811015613280578082015181840152602081019050613265565b8381111561328f576000848401525b50505050565b600060028204905060018216806132ad57607f821691505b602082108114156132c1576132c06133d0565b5b50919050565b6132d08261342e565b810181811067ffffffffffffffff821117156132ef576132ee6133ff565b5b80604052505050565b600061330382613249565b91507fffffffffffffffffffffffffffffffffffffffffffffffffffffffffffffffff82141561333657613335613372565b5b600182019050919050565b600061334c82613249565b915061335783613249565b925082613367576133666133a1565b5b828206905092915050565b7f4e487b7100000000000000000000000000000000000000000000000000000000600052601160045260246000fd5b7f4e487b7100000000000000000000000000000000000000000000000000000000600052601260045260246000fd5b7f4e487b7100000000000000000000000000000000000000000000000000000000600052602260045260246000fd5b7f4e487b7100000000000000000000000000000000000000000000000000000000600052604160045260246000fd5b6000601f19601f8301169050919050565b7f455243373231456e756d657261626c653a206f776e657220696e646578206f7560008201527f74206f6620626f756e6473000000000000000000000000000000000000000000602082015250565b7f4552433732313a207472616e7366657220746f206e6f6e20455243373231526560008201527f63656976657220696d706c656d656e7465720000000000000000000000000000602082015250565b7f4f776e61626c653a206e6577206f776e657220697320746865207a65726f206160008201527f6464726573730000000000000000000000000000000000000000000000000000602082015250565b7f4552433732313a20746f6b656e20616c7265616479206d696e74656400000000600082015250565b7f4552433732313a207472616e7366657220746f20746865207a65726f2061646460008201527f7265737300000000000000000000000000000000000000000000000000000000602082015250565b7f4552433732313a20617070726f766520746f2063616c6c657200000000000000600082015250565b7f68747470733a2f2f7377616770616e64612e73332e616d617a6f6e6177732e6360008201527f6f6d2f6d6574612f000000000000000000000000000000000000000000000000602082015250565b7f4552433732313a206f70657261746f7220717565727920666f72206e6f6e657860008201527f697374656e7420746f6b656e0000000000000000000000000000000000000000602082015250565b7f4552433732313a20617070726f76652063616c6c6572206973206e6f74206f7760008201527f6e6572206e6f7220617070726f76656420666f7220616c6c0000000000000000602082015250565b7f4552433732313a2062616c616e636520717565727920666f7220746865207a6560008201527f726f206164647265737300000000000000000000000000000000000000000000602082015250565b7f4552433732313a206f776e657220717565727920666f72206e6f6e657869737460008201527f656e7420746f6b656e0000000000000000000000000000000000000000000000602082015250565b7f4552433732313a206d696e7420746f20746865207a65726f2061646472657373600082015250565b7f4552433732313a20617070726f76656420717565727920666f72206e6f6e657860008201527f697374656e7420746f6b656e0000000000000000000000000000000000000000602082015250565b7f2e6a736f6e000000000000000000000000000000000000000000000000000000600082015250565b7f4f776e61626c653a2063616c6c6572206973206e6f7420746865206f776e6572600082015250565b7f4552433732313a207472616e73666572206f6620746f6b656e2074686174206960008201527f73206e6f74206f776e0000000000000000000000000000000000000000000000602082015250565b7f4552433732313a20617070726f76616c20746f2063757272656e74206f776e6560008201527f7200000000000000000000000000000000000000000000000000000000000000602082015250565b7f4c657373207468616e20636f7374546f4d696e74000000000000000000000000600082015250565b7f4552433732313a207472616e736665722063616c6c6572206973206e6f74206f60008201527f776e6572206e6f7220617070726f766564000000000000000000000000000000602082015250565b7f4f7574206f6620746f6b656e7300000000000000000000000000000000000000600082015250565b7f455243373231456e756d657261626c653a20676c6f62616c20696e646578206f60008201527f7574206f6620626f756e64730000000000000000000000000000000000000000602082015250565b7f5265656e7472616e637947756172643a207265656e7472616e742063616c6c00600082015250565b6139e2816131df565b81146139ed57600080fd5b50565b6139f9816131f1565b8114613a0457600080fd5b50565b613a10816131fd565b8114613a1b57600080fd5b50565b613a2781613249565b8114613a3257600080fd5b5056fea26469706673582212208e3235279d93ae6627b6a40e427824870e9b62772c0a7dbeeff2426090b8678864736f6c63430008040033",
  "linkReferences": {},
  "deployedLinkReferences": {}
}